:020000040800F2
:10000000000001200DA9000855A9000855A9000805
:1000100055A9000855A9000855A9000800000000CE
:1000200000000000000000000000000055A90008CA
:1000300055A900080000000055A90008BDF20008FD
:1000400055A9000855A9000855A9000855A9000898
:1000500055A9000855A9000855A9000855A9000888
:1000600055A9000855A9000855A9000855A9000878
:1000700055A9000855A9000855A9000855A9000868
:1000800055A9000855A9000855A9000855A9000858
:1000900055A9000855A9000855A900082DAF00086A
:1000A00055A9000855A9000855A9000855A9000838
:1000B00055A9000855A9000855A9000855A9000828
:1000C00055A9000855A9000855A9000855A9000818
:1000D00055A9000855A9000855A9000855A9000808
:1000E00055A9000895F3000895AE0008000000002F
:1000F0000000000000000000000000000000000000
:10010000000000000000000055A9000855A90008E3
:1001100055A9000855A9000855A9000855A90008C7
:1001200055A9000855A9000855A9000855A90008B7
:1001300055A9000855A9000855A9000855A90008A7
:1001400055A9000855A9000855A90008C5AE000822
:10015000000000000000000000000000000000009F
:10016000000000000000000000000000000000008F
:10017000000000000000000000000000000000007F
:10018000000000000000000000000000000000006F
:10019000000000000000000000000000000000005F
:1001A000000000000000000000000000000000004F
:1001B000000000000000000000000000000000003F
:1001C000000000000000000000000000000000002F
:1001D000000000000000000000000000000000001F
:0401E0005FF8E0F1F3
:1001E800044B05481B1A062B02D9044B03B11847C8
:1001F800704700BF930B0020900B00200000000008
:1002080005490648091A891001EBD171491002D035
:10021800034B03B118477047900B0020900B002048
:100228000000000010B5064C237843B9FFF7D8FF4B
:10023800044B13B10448AFF300800123237010BDB1
:10024800900B0020000000005881010808B5084BF9
:100258001BB108490848AFF300800848036813B980
:10026800BDE80840CCE7064B002BF9D09847F7E7E4
:1002780000000000940B002058810108900B00201A
:100288000000000081F0004102E000BF83F000435D
:1002980030B54FEA41044FEA430594EA050F08BF19
:1002A80090EA020F1FBF54EA000C55EA020C7FEADD
:1002B800645C7FEA655C00F0E2804FEA5454D4EB5A
:1002C8005555B8BF6D420CDD2C4480EA020281EA24
:1002D800030382EA000083EA010180EA020281EA5C
:1002E8000303362D88BF30BD11F0004F4FEA0131AE
:1002F8004FF4801C4CEA113102D0404261EB4101BD
:1003080013F0004F4FEA03334CEA133302D0524242
:1003180063EB430394EA050F00F0A780A4F10104FE
:10032800D5F1200E0DDB02FA0EFC22FA05F2801838
:1003380041F1000103FA0EF2801843FA05F359411E
:100348000EE0A5F120050EF1200E012A03FA0EFC9D
:1003580028BF4CF0020C43FA05F3C01851EBE371C7
:1003680001F0004507D54FF0000EDCF1000C7EEBE4
:1003780000006EEB0101B1F5801F1BD3B1F5001F22
:100388000CD349085FEA30004FEA3C0C04F1010441
:100398004FEA445212F5800F80F09A80BCF1004F6A
:1003A80008BF5FEA500C50F1000041EB045141EAEC
:1003B800050130BD5FEA4C0C404141EB010111F4ED
:1003C800801FA4F10104E9D191F0000F04BF014698
:1003D8000020B1FA81F308BF2033A3F10B03B3F176
:1003E80020020CDA0C3208DD02F1140CC2F10C0206
:1003F80001FA0CF021FA02F10CE002F11402D8BF64
:10040800C2F1200C01FA02F120FA0CFCDCBF41EA2F
:100418000C019040E41AA2BF01EB0451294330BDFE
:100428006FEA04041F3C1CDA0C340EDC04F11404DB
:10043800C4F1200220FA04F001FA02F340EA0300B2
:1004480021FA04F345EA030130BDC4F10C04C4F1F8
:10045800200220FA02F001FA04F340EA03002946D8
:1004680030BD21FA04F0294630BD94F0000F83F422
:10047800801306BF81F480110134013D4EE77FEA05
:10048800645C18BF7FEA655C29D094EA050F08BF51
:1004980090EA020F05D054EA000C04BF1946104632
:1004A80030BD91EA030F1EBF0021002030BD5FEA76
:1004B800545C05D14000494128BF41F0004130BD9E
:1004C80014F580043CBF01F5801130BD01F00045F2
:1004D80045F0FE4141F470014FF0000030BD7FEA65
:1004E800645C1ABF194610467FEA655C1CBF0B4660
:1004F800024650EA013406BF52EA033591EA030F77
:1005080041F4002130BD00BF90F0000F04BF00216E
:10051800704730B54FF4806404F132044FF00005A1
:100528004FF0000150E700BF90F0000F04BF00211A
:10053800704730B54FF4806404F1320410F0004580
:1005480048BF40424FF000013EE700BF42004FEA7B
:10055800E2014FEA31014FEA02701FBF12F07F43F8
:1005680093F07F4F81F06051704792F0000F14BFF5
:1005780093F07F4F704730B54FF4607401F0004539
:1005880021F0004120E700BF50EA010208BF704790
:1005980030B54FF000050AE050EA010208BF704785
:1005A80030B511F0004502D5404261EB41014FF4EE
:1005B800806404F132045FEA915C3FF4DCAE4FF0F2
:1005C80003025FEADC0C18BF03325FEADC0C18BFD9
:1005D800033202EBDC02C2F1200300FA03FC20FA2A
:1005E80002F001FA03FE40EA0E0021FA02F1144477
:1005F800C1E600BF70B54FF0FF0C4CF4E06C1CEA8C
:1006080011541DBF1CEA135594EA0C0F95EA0C0F00
:1006180000F0DEF82C4481EA030621EA4C5123EA73
:100628004C5350EA013518BF52EA033541F48011A2
:1006380043F4801338D0A0FB02CE4FF00005E1FB55
:1006480002E506F00042E0FB03E54FF00006E1FB9F
:1006580003569CF0000F18BF4EF0010EA4F1FF04E2
:10066800B6F5007F64F5407404D25FEA4E0E6D4122
:1006780046EB060642EAC62141EA55514FEAC52033
:1006880040EA5E504FEACE2EB4F1FD0C88BFBCF5AF
:10069800E06F1ED8BEF1004F08BF5FEA500E50F160
:1006A800000041EB045170BD06F0004646EA010126
:1006B80040EA020081EA0301B4EB5C04C2BFD4EB58
:1006C8000C0541EA045170BD41F480114FF0000E51
:1006D800013C00F3AB8014F1360FDEBF002001F0BF
:1006E800004170BDC4F10004203C35DA0C341BDC39
:1006F80004F11404C4F1200500FA05F320FA04F00B
:1007080001FA05F240EA020001F0004221F000413E
:1007180010EBD37021FA04F642EB06015EEA430EB1
:1007280008BF20EAD37070BDC4F10C04C4F12005E1
:1007380000FA04F320FA05F001FA04F240EA020094
:1007480001F0004110EBD37041F100015EEA430E65
:1007580008BF20EAD37070BDC4F1200500FA05F285
:100768004EEA020E20FA04F301FA05F243EA020304
:1007780021FA04F001F0004121FA04F220EA020013
:1007880000EBD3705EEA430E08BF20EAD37070BD59
:1007980094F0000F0FD101F00046400041EB010139
:1007A80011F4801F08BF013CF7D041EA060195F01B
:1007B800000F18BF704703F00046520043EB0303D5
:1007C80013F4801F08BF013DF7D043EA06037047C2
:1007D80094EA0C0F0CEA135518BF95EA0C0F0CD0CD
:1007E80050EA410618BF52EA4306D1D181EA030113
:1007F80001F000414FF0000070BD50EA410606BF0D
:100808001046194652EA430619D094EA0C0F02D151
:1008180050EA013613D195EA0C0F05D152EA033696
:100828001CBF104619460AD181EA030101F00041B4
:1008380041F0FE4141F470014FF0000070BD41F0FD
:10084800FE4141F4780170BD70B54FF0FF0C4CF4D7
:10085800E06C1CEA11541DBF1CEA135594EA0C0FF6
:1008680095EA0C0F00F0A7F8A4EB050481EA030E43
:1008780052EA03354FEA013100F088804FEA03332A
:100888004FF0805545EA131343EA12634FEA0222F8
:1008980045EA111545EA10654FEA00260EF00041B9
:1008A8009D4208BF964244F1FD0404F5407402D20B
:1008B8005B084FEA3202B61A65EB03055B084FEA9C
:1008C80032024FF480104FF4002CB6EB020E75EB99
:1008D800030E22BFB61A754640EA0C005B084FEAC1
:1008E8003202B6EB020E75EB030E22BFB61A75463E
:1008F80040EA5C005B084FEA3202B6EB020E75EB89
:10090800030E22BFB61A754640EA9C005B084FEA00
:100918003202B6EB020E75EB030E22BFB61A75460D
:1009280040EADC0055EA060E18D04FEA051545EAFC
:1009380016754FEA06164FEAC30343EA52734FEAA5
:10094800C2025FEA1C1CC0D111F4801F0BD141EA1E
:1009580000014FF000004FF0004CB6E711F4801F83
:1009680004BF01430020B4F1FD0C88BFBCF5E06F63
:100978003FF6AFAEB5EB030C04BFB6EB020C5FEA73
:10098800500C50F1000041EB045170BD0EF0004EC8
:100998004EEA113114EB5C04C2BFD4EB0C0541EAFA
:1009A800045170BD41F480114FF0000E013C90E6F7
:1009B80045EA060E8DE60CEA135594EA0C0F08BFBB
:1009C80095EA0C0F3FF43BAF94EA0C0F0AD150EABA
:1009D80001347FF434AF95EA0C0F7FF425AF10464D
:1009E80019462CE795EA0C0F06D152EA03353FF475
:1009F800FDAE1046194622E750EA410618BF52EAF2
:100A080043067FF4C5AE50EA41047FF40DAF52EAC5
:100A180043057FF4EBAE12E74FF0FF3C06E000BF62
:100A28004FF0010C02E000BF4FF0010C4DF804CD6F
:100A38004FEA410C7FEA6C5C4FEA430C18BF7FEA2F
:100A48006C5C1BD001B050EA410C0CBF52EA430C5D
:100A580091EA030F02BF90EA020F0020704710F1DD
:100A6800000F91EA030F58BF994208BF90422CBF6C
:100A7800D8176FEAE37040F0010070474FEA410C65
:100A88007FEA6C5C02D150EA013C07D14FEA430C83
:100A98007FEA6C5CD6D152EA033CD3D05DF8040BF4
:100AA800704700BF8446104662468C461946634626
:100AB80000E000BF01B5FFF7B7FF002848BF10F1FD
:100AC800000F01BD4DF808EDFFF7F4FF0CBF012042
:100AD80000205DF808FB00BF4DF808EDFFF7EAFFBE
:100AE80034BF012000205DF808FB00BF4DF808ED79
:100AF800FFF7E0FF94BF012000205DF808FB00BF6E
:100B08004DF808EDFFF7CEFF94BF012000205DF8F7
:100B180008FB00BF4DF808EDFFF7C4FF34BF012004
:100B280000205DF808FB00BF4FEA410212F50012F1
:100B380015D211D56FF47873B3EB625212D94FEA1C
:100B4800C12343F0004343EA505311F0004F23FA06
:100B580002F018BF404270474FF00000704750EA5B
:100B6800013005D111F0004008BF6FF00040704718
:100B78004FF00000704700BF4A0011D212F5001272
:100B880011D20DD56FF47873B3EB62520ED44FEADD
:100B9800C12343F0004343EA505323FA02F070475D
:100BA8004FF00000704750EA013002D14FF0FF309B
:100BB80070474FF0000070474FEA4102B2F1E0433E
:100BC80024BFB3F5001CDCF1FE5C0DD901F0004C2C
:100BD8004FEAC0024CEA5070B2F1004F40EB83007C
:100BE80008BF20F00100704711F0804F21D113F1A8
:100BF8003872BCBF01F00040704741F480114FEAE1
:100C08005252C2F11802C2F1200C10FA0CF320FA69
:100C180002F018BF40F001004FEAC1234FEAD32386
:100C280003FA0CFC40EA0C0023FA02F34FEA4303F0
:100C3800CCE77FEA625307D150EA01331EBF4FF079
:100C4800FE4040F44000704701F0004040F0FE4094
:100C580040F40000704700BF80F0004002E000BF91
:100C680081F0004142001FBF5FEA410392EA030F8F
:100C78007FEA226C7FEA236C6AD04FEA1262D2EBD9
:100C88001363C1BFD218414048404140B8BF5B42DE
:100C9800192B88BF704710F0004F40F4000020F077
:100CA8007F4018BF404211F0004F41F4000121F08D
:100CB8007F4118BF494292EA030F3FD0A2F10102D7
:100CC80041FA03FC10EB0C00C3F1200301FA03F115
:100CD80000F0004302D5494260EB4000B0F5000F38
:100CE80013D3B0F1807F06D340084FEA310102F1F7
:100CF8000102FE2A51D2B1F1004F40EBC25008BFA9
:100D080020F0010040EA03007047490040EB000072
:100D180010F4000FA2F10102EDD1B0FA80FCACF1A1
:100D2800080CB2EB0C0200FA0CF0AABF00EBC250A0
:100D380052421843BCBFD0401843704792F0000F8E
:100D480081F4000106BF80F400000132013BB5E7E1
:100D58004FEA41037FEA226C18BF7FEA236C21D057
:100D680092EA030F04D092F0000F08BF08467047BC
:100D780090EA010F1CBF0020704712F07F4F04D18A
:100D8800400028BF40F00040704712F100723CBF9D
:100D980000F50000704700F0004343F0FE4040F4C7
:100DA800000070477FEA226216BF08467FEA236385
:100DB8000146420206BF5FEA412390EA010F40F470
:100DC800800070474FF0000304E000BF10F00043BC
:100DD80048BF40425FEA000C08BF704743F09643A3
:100DE80001464FF000001CE050EA010208BF7047BE
:100DF8004FF000030AE000BF50EA010208BF704745
:100E080011F0004302D5404261EB41015FEA010C59
:100E180002BF84460146002043F0B64308BFA3F151
:100E28008053A3F50003BCFA8CF2083AA3EBC25333
:100E380010DB01FA02FC634400FA02FCC2F1200252
:100E4800BCF1004F20FA02F243EB020008BF20F089
:100E58000100704702F1200201FA02FCC2F12002EF
:100E680050EA4C0021FA02F243EB020008BF20EAE4
:100E7800DC707047F8B50022002307460E46FFF7DE
:100E88002BFE28B938463146BDE8F84000F00AB8CC
:100E9800384606F1004100F005F8404261EB410197
:100EA800F8BD00BFD0B500220E4B06460F46FFF72F
:100EB800A1FBFFF761FE0446FFF726FB00220A4B61
:100EC800FFF798FB02460B4630463946FFF7DEF936
:100ED800FFF752FE2346002242EA00021046194656
:100EE800D0BD00BF0000F03D0000F0410030A0E39D
:100EF80010402DE90010A0E10320A0E10300A0E1CB
:100F0800F20A00EB1040BDE81EFF2FE170402DE90A
:100F180030509FE530409FE5054064E04441B0E132
:100F28000500000A014044E2043035E50FE0A0E185
:100F380013FF2FE1000054E3F9FFFF1A865C00FA63
:100F48007040BDE81EFF2FE18481010880810108FF
:100F580070402DE964609FE564509FE5066065E098
:100F68004661B0E10040A0130500000A014084E298
:100F7800043095E40FE0A0E113FF2FE1040056E1EF
:100F8800F9FFFF1A3C609FE53C509FE5066065E06D
:100F98006E5C00FA4661B0E10040A0130500000A4B
:100FA800014084E2043095E40FE0A0E113FF2FE153
:100FB800040056E1F9FFFF1A7040BDE81EFF2FE15B
:100FC8007881010878810108808101087881010809
:100FD800030052E310402DE91100009A013080E12E
:100FE800030013E31000001A01C0A0E10030A0E1E3
:100FF800004093E500E09CE50E0054E10300A0E109
:101008000C10A0E1043083E204C08CE20600001A50
:10101800042042E2030052E30300A0E10C10A0E127
:10102800F2FFFF8A000052E31200000A00C0D0E578
:1010380000E0D1E50E005CE1022080000130800272
:101048000400000A080000EA01C0D3E401E0F1E569
:101058000E005CE10400001A020053E1F9FFFF1AD8
:101068000000A0E31040BDE81EFF2FE10C006EE079
:101078001040BDE81EFF2FE10200A0E1F8FFFFEAE3
:101088000F0052E3F0402DE92900009A003081E179
:10109800030013E33100001A02E0A0E110C080E26F
:1010A800103081E2107013E50C6013E5085013E569
:1010B800044013E510E04EE20F005EE310700CE50B
:1010C8000C600CE508500CE504400CE5103083E298
:1010D80010C08CE2F2FFFF8A103042E20F30C3E307
:1010E8000F6002E2103083E2030056E3031081E050
:1010F800033080E01B00009A0140A0E106C0A0E197
:1011080004E043E204C04CE2045094E403005CE3CE
:101118000450AEE5FAFFFF8A04C046E203C0CCE300
:1011280004C08CE20C3083E00C1081E0032002E262
:10113800000000EA0030A0E1000052E30500000AC8
:10114800013043E2022081E001C0D1E4020051E114
:1011580001C0E3E5FBFFFF1AF040BDE81EFF2FE1E9
:101168000030A0E1F5FFFFEA0620A0E1F1FFFFEA69
:10117800010050E170402DE90C00009A023081E036
:10118800030050E10900002A000052E3021080E049
:101198000400000A032062E001C073E5020053E185
:1011A80001C061E5FBFFFF1A7040BDE81EFF2FE19B
:1011B8000F0052E30A00008A0030A0E1000052E369
:1011C800F8FFFF0A013043E2022081E001C0D1E4C8
:1011D800010052E101C0E3E5FBFFFF1A7040BDE8E2
:1011E8001EFF2FE1003081E1030013E32600001AFF
:1011F80002E0A0E110C080E2103081E2104013E567
:1012080010400CE50C4013E50C400CE5084013E5D4
:1012180008400CE510E04EE2044013E50F005EE3E1
:1012280004400CE5103083E210C08CE2F2FFFF8A24
:10123800103042E20F30C3E30F6002E2103083E265
:10124800030056E3031081E0033080E01000009AA9
:101258000140A0E106C0A0E104E043E204C04CE282
:10126800045094E403005CE30450AEE5FAFFFF8AFF
:1012780004C046E203C0CCE304C08CE20C3083E037
:101288000C1081E0032002E2CBFFFFEA0030A0E16E
:10129800CBFFFFEA0620A0E1C7FFFFEA030010E347
:1012A80010402DE93700000A000052E3012042E215
:1012B8003200000AFFC001E20030A0E1020000EAAB
:1012C800000052E3012042E22C00000A01C0C3E4FE
:1012D800030013E3F9FFFF1A030052E32000009A0A
:1012E800FFE001E20EE48EE10F0052E30EE88EE12A
:1012F8001000009A0240A0E110C083E2104044E2CE
:101308000F0054E310E00CE50CE00CE508E00CE5F8
:1013180004E00CE510C08CE2F7FFFF8A10C042E23F
:101328000FC0CCE30F2002E210C08CE2030052E3AE
:101338000C3083E00A00009A0340A0E102C0A0E15B
:1013480004C04CE203005CE304E084E4FBFFFF8A92
:1013580004C042E203C0CCE304C08CE20C3083E05A
:10136800032002E2000052E3FF1001120220831062
:101378000200000A0110C3E4020053E1FCFFFF1A57
:101388001040BDE81EFF2FE10030A0E1D1FFFFEAC9
:101398000E002DE904E02DE508D04DE210C08DE2E5
:1013A8000C30A0E10C209DE5081090E504C08DE507
:1013B800860000EB08D08DE204E09DE40CD08DE2BD
:1013C8001EFF2FE10F002DE904E02DE52C309FE5ED
:1013D8000CD04DE2000093E514C08DE2081090E5B2
:1013E8000C30A0E110209DE504C08DE5770000EBEE
:1013F8000CD08DE204E09DE410D08DE21EFF2FE1B9
:101408000000002010402DE9082090E5391A00EB73
:101418001040BDE81EFF2FE110402DE918309FE570
:10142800003093E50010A0E1082093E50300A0E157
:10143800301A00EB1040BDE81EFF2FE1000000202D
:1014480030402DE90050A0E124D04DE20100A0E198
:101458000140A0E1450000EB01C0A0E30210A0E3B9
:10146800383095E57C209FE5000053E30CE080E0F0
:1014780010308DE210408DE514008DE50CE08DE50F
:10148800084095E51CC08DE508108DE518208DE510
:1014980004308DE51000000AFC30D4E1020A13E3A1
:1014A80064209405023A8303022AC2036420840557
:1014B800BC30C4010410A0E10500A0E104208DE2C5
:1014C8006A1200EB000050E30000E0130A00A003DA
:1014D80024D08DE23040BDE81EFF2FE10500A0E1D9
:1014E8004D1100EBEBFFFFEAF480010808309FE59F
:1014F8000010A0E1000093E5D0FFFFEA0000002003
:101508000020A0E30C309FE5003093E5A80083E5B8
:10151800AC2083E51EFF2FE10000002004E02DE54C
:101528003C309FE5001093E538009FE5A8E091E581
:101538009E0000E0AC3091E52CC09FE59C0320E0C4
:101548009E2C83E0033080E0012092E20030A3E289
:10155800A82081E5AC3081E50201C3E304E09DE405
:101568001EFF2FE1000000202DF451582D7F954CCF
:101578000310C0E3030010E2000060E2043091E4CD
:1015880004C080E28CC1A0E10020E0E3323C83117A
:1015980001C0A0E30CC48CE10CC88CE10C2043E032
:1015A8000320C2E18C2312E004309104040080027D
:1015B800F9FFFF0AFF0013E301008012FF0C131369
:1015C80001008012FF081313010080121EFF2FE193
:1015D800F04F2DE941DF4DE20340A0E10190A0E189
:1015E80002B0A0E10050A0E120008DE5BE1300EBA1
:1015F800003090E50300A0E158308DE5DBFFFFEBFC
:10160800000055E354008DE530408DE50200000AE6
:10161800383095E5000053E3CB00000AFC20D9E1FF
:101628000238A0E1020213E32338A0E10600001A01
:10163800643099E5022A82E3023AC3E3BC20C9E197
:101648000228A0E1643089E52238A0E1080013E30C
:10165800A200000A102099E5000052E39F00000A4A
:101668001A3003E20A0053E3AC00000A0030A0E39A
:10167800C0808DE248308DE564308DE528308DE5F9
:101688004C308DE550308DE594308DE590308DE50A
:10169800DC3F9FE58C808DE524908DE510A083E2EA
:1016A8000030DBE5000053E3250053130B40A0E1B5
:1016B8001300000A0130F4E5000053E3250053133A
:1016C800FBFFFF1A0B5054E00D00000A90309DE517
:1016D80094209DE5013083E2070053E3052082E072
:1016E80000B088E5045088E590308DE594208DE5BC
:1016F800088088D2810000CA28309DE5053083E043
:1017080028308DE50030D4E5000053E3D306000A05
:101718000030A0E30320A0E16F30CDE50310A0E185
:101728002C308DE50370A0E10130D4E501B084E2EE
:101738000090E0E301B08BE2200043E2580050E360
:1017480000F19F977E0200EAD81F00084C2100088C
:101758004C210008EC1F00084C2100084C2100080F
:101768004C2100084C2100084C2100084C2100089D
:10177800B4180008601900084C210008DC1800089B
:10178800701900084C210008B4190008C019000895
:10179800C0190008C0190008C0190008C0190008BD
:1017A800C0190008C0190008C0190008C0190008AD
:1017B8004C2100084C2100084C2100084C2100084D
:1017C8004C2100084C2100084C2100084C2100083D
:1017D8004C2100084C210008EC190008B01B000837
:1017E8004C210008B01B00084C2100084C210008BF
:1017F8004C2100084C210008A41B00084C210008BB
:101808004C210008801C00084C2100084C210008CD
:101818004C2100084C2100084C2100083C1D000800
:101828004C2100084C210008AC1D00084C21000880
:101838004C2100084C2100084C2100084C210008CC
:101848004C2100084C2100084C2100084C210008BC
:101858004C210008C020000804210008B01B000823
:10186800B01B0008B01B0008F81F0008042100087E
:101878004C2100084C210008042000084C210008D5
:1018880020200008502000085C1E0008BC1E00082C
:101898004C210008C81E00084C210008301F000811
:1018A8004C2100084C210008A01F000830309DE59D
:1018B800000093E5043083E2000050E32C008DE53E
:1018C80030308DE5030000AA2C309DE5003063E23E
:1018D8002C308DE5047087E30030DBE594FFFFEAE8
:1018E8000910A0E120009DE51F0800EB000050E36F
:1018F800BC30D90159FFFF0A0000E0E30F0000EAFD
:1019080020008DE28C208DE2030090E8981B00EB0C
:10191800000050E3A703001AC0808DE275FFFFEABC
:10192800FE30D9E1000053E34FFFFFBA0430A0E1D5
:101938000B20A0E10910A0E120009DE5DF0700EBE6
:1019480041DF8DE2F04FBDE81EFF2FE120009DE54D
:10195800311000EB30FFFFEA0030DBE50120A0E3A7
:101968002B10A0E372FFFFEA0030DBE52A0053E307
:1019780001C08BE2B707000A300043E2090050E3D8
:101988000CB0A0E10090A0E36AFFFF8A0130DBE41D
:10199800099189E0899080E0300043E2090050E332
:1019A800F9FFFF9AC99F89E162FFFFEA807087E328
:1019B8000030DBE55EFFFFEA0000A0E300C0A0E125
:1019C800300043E20130DBE40CC18CE08CC080E0E5
:1019D800300043E2090050E3F9FFFF9A2CC08DE57F
:1019E80054FFFFEA000052E3107087E36F10CD1533
:1019F800200017E340308DE5C401000A30309DE532
:101A0800074083E20740C4E30C0094E8081084E22E
:101A180018208DE51C308DE530108DE5000052E36F
:101A28000030D3E2D70400BA000059E3D20300BA69
:101A380018408DE2180094E80320A0E1043082E108
:101A4800000053E3000059038070C7E3CA03001A7B
:101A58006F50DDE50090A0E30960A0E1C0308DE2A1
:101A680034308DE5090056E10630A0A10930A0B157
:101A780018308DE50030A0E344308DE5000055E3D3
:101A88000200000A18309DE5013083E218308DE528
:101A9800023017E238308DE518309D150230831278
:101AA80018308D15843017E23C308DE5BB01001AE3
:101AB8002C309DE518209DE5033062E0000053E3DB
:101AC800B60100DA100053E3AA0600DAA05B9FE52E
:101AD8005C708DE560608DE50800A0E11040A0E332
:101AE8000580A0E194109DE590209DE50360A0E1AC
:101AF80024709DE520509DE5020000EA106046E252
:101B0800100056E3140000DA012082E2603B9FE5F2
:101B1800070052E3101081E2180080E890208DE55C
:101B280094108DE5080080D2F3FFFFDA8C208DE257
:101B38000710A0E10500A0E10D1B00EB000050E339
:101B48009A03001A106046E2100056E3C0008DE2C6
:101B580094109DE590209DE5EAFFFFCA0850A0E19A
:101B68000080A0E10630A0E15C709DE560609DE525
:101B7800012082E2014083E0070052E390208DE5D6
:101B880094408DE5005088E5043088E57B0100CA63
:101B9800088088E26F50DDE5810100EA087087E37C
:101BA8000030DBE5E2FEFFEA000052E340308DE55D
:101BB80030309DE56F10CD15080017E3074083E22C
:101BC8001105000A0730C4E3082083E230208DE5C0
:101BD800002093E5043093E54C208DE550308DE5E9
:101BE80050309DE54C509DE50241C3E30500A0E15E
:101BF8000410A0E10020E0E3783A9FE5722200FAA1
:101C0800000050E37204001A0500A0E10410A0E1EE
:101C18000020E0E35C3A9FE5B3FBFFFA000050E3E5
:101C28006B04001A4C008DE2030090E80020A0E34A
:101C38000030A0E3A7FBFFFA000050E3A006001A5B
:101C48006F50DDE50330A0E340109DE50360A0E19F
:101C580018308DE5203A9FE5470051E31C2A9FE59F
:101C68000090A0E30320A0D18070C7E344908DE5E5
:101C780034208DE580FFFFEA000052E3107087E30F
:101C880040308DE56F10CD15203017E2F200000AC4
:101C98000010A0E330309DE5074083E20730C4E33D
:101CA800082083E2010059E130208DE56F10CDE571
:101CB8000C0093E8040000BA031082E1000051E32D
:101CC800000059038070C7E3F400000AC0008DE2E9
:101CD800A2C1A0E183CE8CE1A3E1A0E1071002E25A
:101CE8000E30A0E10C20A0E1301081E203C092E1A7
:101CF800011060E5F5FFFF1A300051E30050A00322
:101D080001500712000055E33030A01301204012A3
:101D1800C0308D0201304015C0308D120360600064
:101D280034008D0534208D15036062100050A01317
:101D38004BFFFFEA000052E3107087E340308DE567
:101D48006F10CD15203017E27B00000A0050A0E389
:101D580030309DE5074083E20730C4E3082083E282
:101D6800180093E8050059E130208DE518308DE51D
:101D78001C408DE56F50CDE5000300BA0320A0E1BB
:101D8800043082E1050053E1050059018070C7E382
:101D98000130A0130030A003F802001A0350A0E19C
:101DA8002BFFFFEA000052E36F10CD15200017E368
:101DB80040308DE5C8C89FE57C00000A30309DE5BD
:101DC800074083E20730C4E3082083E230208DE532
:101DD8000C0093E8011017E21D03000A031092E1BA
:101DE800F303000A0010A0E33000A0E340E0DDE5C3
:101DF800010059E16F10CDE571E0CDE58010C7A372
:101E08007000CDE5027087B3027081A3C0108DE227
:101E18000100A0E12212A0E1031E81E12342A0E11A
:101E28000FE002E20430A0E10120A0E10E10DCE79F
:101E380003E092E1011060E5F5FFFF1AC0208DE292
:101E48000030A0E134008DE5026060E00050A0E3BE
:101E580003FFFFEA0030A0E33010A0E37800A0E31E
:101E680030C09DE5030059E16F30CDE500209CE5C9
:101E78007010CDE57100CDE504408CE20030A0E3A0
:101E8800610500BA031082E1000051E30000590324
:101E98008010C7E330408DE540008DE50150A01368
:101EA8000050A003027081E3E9FEFF0AE0C79FE546
:101EB800D5FFFFEA207087E30030DBE51CFEFFEA70
:101EC8000050A0E340308DE530309DE5002093E5DB
:101ED800050052E134208DE56F50CDE5044083E2E2
:101EE800C205000A000059E3820500BA0920A0E1F2
:101EF8000510A0E134009DE5C41300EB000050E399
:101F08000106000A0590A0E134309DE5006063E019
:101F1800C63FC6E130408DE518308DE544908DE52B
:101F28006F50DDE5D4FEFFEA000052E340308DE556
:101F38006F10CD15203017E283FFFF1A102017E22B
:101F48004504000A30209DE5006092E5044082E2E5
:101F58000610A0E10020A0E3000059E36F30CDE5B2
:101F680018108DE51C208DE5D90500BA022086E100
:101F7800000052E3000059030020A00330408DE523
:101F88000120A0138070C7E30250A001B0FEFF0A31
:101F98000350A0E1790200EA000052E36F10CD156A
:101FA800200017E340308DE5E4C69FE582FFFF1A65
:101FB800100017E35104000A30309DE5002093E536
:101FC800043083E230308DE50030A0E380FFFFEA83
:101FD800000051E30030DBE50120A0032010A0033E
:101FE800D3FDFFEA017087E30030DBE5D0FDFFEAAF
:101FF800407087E30030DBE5CDFDFFEA0030DBE52C
:102008006C0053E30130DB052070870301B08B02BD
:1020180010708713C6FDFFEA000052E36F10CD155C
:10202800200017E32304000A30309DE528209DE5B1
:10203800001093E5043083E230308DE5C23FA0E123
:102048000C0081E895FDFFEA000052E340308DE581
:102058006F10CD15203017E20CFFFF1A102017E281
:10206800F103000A30109DE5000059E36F30CDE51B
:10207800002091E5044081E20030A0E3F40300BAB7
:102088000110A0130010A003030092E101108113B6
:10209800000051E330408DE58070C7E30AFFFF1A66
:1020A800015017E22C02001AC0308DE234308DE561
:1020B8000560A0E16AFEFFEA40308DE50130A0E34B
:1020C8000020A0E330109DE50360A0E118308DE505
:1020D800003091E59830CDE5043081E230308DE56F
:1020E80098308DE26F20CDE534308DE50050A0E3C7
:1020F8000590A0E144508DE564FEFFEA000052E33C
:102108006F10CD15200017E340308DE53AFEFF1A19
:10211800100017E30104000A30209DE5006092E5F5
:102128000630A0E1C64FA0E1042082E218308DE518
:102138001C408DE530208DE50430A0E10620A0E1AB
:1021480035FEFFEA40308DE5000052E340209DE572
:102158006F10CD15000052E34004000A0030A0E3E0
:102168000110A0E36F30CDE598308DE218108DE5B1
:102178009820CDE50160A0E134308DE5DAFFFFEA73
:1021880020008DE28C208DE2030090E8781900EBA6
:10219800000050E38701001A6F50DDE5C0808DE232
:1021A80094409DE5000055E30B00000A0120A0E3E0
:1021B80090309DE5023083E0070053E3024084E05D
:1021C80090308DE56F308DE2042088E5003088E599
:1021D80094408DE5088088D2800100CA38309DE59A
:1021E800000053E30B00000A0220A0E390309DE5B5
:1021F800013083E2070053E3024084E090308DE52C
:1022080070308DE2042088E5003088E594408DE543
:10221800088088D27A0100CA3C309DE5800053E3EB
:10222800D500000A095066E0000055E3370000DADF
:10223800100055E3BE0300DA50249FE50410A0E126
:1022480020408DE238208DE51090A0E30820A0E121
:1022580090309DE50580A0E1300094E8020000EA96
:10226800108048E2100058E3140000DA013083E2DD
:10227800070053E3101081E200A082E5049082E594
:1022880090308DE594108DE5082082D2F3FFFFDAB7
:102298008C208DE20510A0E10400A0E1341900EBC8
:1022A800000050E34B01001A108048E2100058E388
:1022B800C0208DE294109DE590309DE5EAFFFFCAAD
:1022C8000850A0E10140A0E10280A0E1013083E2D2
:1022D800070053E390308DE538309DE5054084E0F4
:1022E800280088E894408DE5088088D2070000DA45
:1022F80020008DE28C208DE2030090E81C1900EB91
:10230800000050E32B01001A94409DE5C0808DE247
:10231800010C17E34D00001A90309DE534209DE52F
:10232800013083E2064084E0070053E394408DE5E2
:10233800440088E890308DE5430100CA088088E2AF
:10234800040017E33400000A2C309DE518209DE5B1
:10235800036062E0000056E32F0000DA100056E345
:102368009F0400DA0420A0E11070A0E390309DE5FE
:10237800FC529FE520909DE524409DE5020000EA7F
:10238800106046E2100056E3140000DA013083E2E0
:10239800DC129FE5070053E3102082E2820088E800
:1023A80090308DE594208DE5088088D2F3FFFFDA20
:1023B8008C208DE20410A0E10900A0E1EC1800EBEC
:1023C800000050E36201001A106046E2100056E374
:1023D800C0808DE294209DE590309DE5EAFFFFCA1C
:1023E8000240A0E1013083E2064084E0070053E3A5
:1023F80090308DE594408DE5600088E8060000DAAD
:1024080020008DE28C208DE2030090E8D81800EBC4
:10241800000050E3E700001A94409DE528309DE550
:102428002C209DE518109DE5010052E1023083A0A3
:10243800013083B0000054E328308DE5D700001A3E
:102448000030A0E3C0808DE290308DE593FCFFEA78
:1024580040309DE5650053E3900000DA4C008DE2C2
:10246800030090E80020A0E30030A0E394F9FFFA0D
:10247800000050E3FD00000A0120A0E390309DE534
:1024880004129FE5023083E0024084E0070053E332
:10249800001088E5042088E594408DE590308DE5AE
:1024A800088088D2260300CA74309DE548209DE53F
:1024B800030052E1010000CA010017E39FFFFF0A71
:1024C80090309DE554209DE5013083E258109DE54C
:1024D800024084E0070053E3060088E894408DE555
:1024E80090308DE5088088D2CC0300CA48309DE53D
:1024F800015043E2000055E390FFFFDA100055E376
:10250800AA0400DA84219FE51060A0E338208DE555
:1025180090309DE50420A0E120909DE524409DE5B4
:10252800020000EA105045E2100055E3BD0000DA51
:10253800013083E2070053E3102082E200A088E51F
:10254800046088E590308DE594208DE5088088D278
:10255800F3FFFFDA8C208DE20410A0E10900A0E16E
:10256800831800EB000050E3F900001AC0808DE2E8
:1025780094209DE590309DE5E9FFFFEA2C309DE52C
:1025880018209DE5035062E0000055E324FFFFDAC0
:10259800F8209FE5100055E390309DE538208DE543
:1025A800210000DA0410A0E120408DE20820A0E11B
:1025B8000580A0E1300094E8020000EA108048E2BB
:1025C800100058E3150000DA1000A0E3013083E2A0
:1025D800070053E3101081E200A082E5040082E5C1
:1025E80090308DE594108DE5082082D2F2FFFFDA55
:1025F8008C208DE20510A0E10400A0E15C1800EB3E
:10260800000050E37300001A108048E2100058E3FD
:10261800C0208DE294109DE590309DE5E9FFFFCA4A
:102628000850A0E10140A0E10280A0E1013083E26E
:10263800070053E390308DE538309DE5054084E090
:10264800280088E894408DE5088088D2F4FEFFDAF7
:1026580020008DE28C208DE2030090E8441800EB06
:10266800000050E35300001AC0808DE294409DE5BD
:10267800EBFEFFEA507A0108FFFFEF7FF8800108C0
:10268800FC800108088101086766666638810108D0
:10269800607A01081C810108507A0108308101081C
:1026A80048309DE5010053E30130A0E390509DE5DB
:1026B800034084E0035085E0590100DA34209DE5A9
:1026C800070055E3002088E5043088E594408DE54F
:1026D80090508DE5088088D2640100CA54309DE589
:1026E800015085E258209DE5070055E3044083E04A
:1026F8000C0088E890508DE594408DE5088088D2DC
:10270800640100CA4C008DE2030090E80020A0E3B9
:102718000030A0E3EAF8FFFA000050E3A500001A31
:1027280048309DE534209DE5015085E2013043E2C3
:10273800012082E2034084E0070055E390508DE5D4
:10274800002088E594408DE5043088E5660100CADC
:10275800088088E264209DE5015085E2044082E01B
:102768007C308DE2070055E390508DE594408DE56F
:10277800042088E5003088E5EFFEFFDA20008DE2CE
:102788008C208DE2030090E8F91700EB000050E37D
:102798000800001AC0808DE294409DE5E7FEFFEA3C
:1027A80020008DE28C208DE2030090E8F01700EB0A
:1027B800000050E321FFFF0A24909DE5BC30D9E1D9
:1027C800400013E34BFCFF1A28009DE541DF8DE232
:1027D800F04FBDE81EFF2FE10590A0E1F6FFFFEAEC
:1027E80020008DE28C208DE2030090E8E01700EBDA
:1027F800000050E3EFFFFF1AC0808DE294409DE592
:1028080075FEFFEA20008DE28C208DE2030090E83F
:10281800D71700EB000050E3E6FFFF1AC0808DE2F7
:1028280094409DE57BFEFFEA0240A0E1013083E28F
:1028380090308DE5070053E338309DE5054084E08E
:1028480094408DE5280088E8BBFEFFDA20008DE281
:102858008C208DE2030090E8C51700EB000050E3E0
:10286800D4FFFF1A94409DE5C0808DE2B3FEFFEAD5
:1028780074509DE5000055E33A0200DA44208DE2E9
:102888000C0092E8020053E10350A0B10250A0A14D
:10289800000055E3090000DA90309DE534209DE5FD
:1028A800013083E2054084E0070053E3240088E810
:1028B80094408DE590308DE5088088D2310300CAB8
:1028C80044309DE5000055E3033065A0000053E364
:1028D8000350A0E17B0000DA100053E3B70300DAED
:1028E80058221FE51060A0E338208DE590309DE563
:1028F8000420A0E120909DE524409DE5020000EA27
:10290800105045E2100055E35C0000DA013083E224
:10291800070053E3102082E200A088E5046088E500
:1029280090308DE594208DE5088088D2F3FFFFDA9A
:102938008C208DE20410A0E10900A0E18C1700EBC7
:10294800000050E3C0808D0294209D0590309D05C5
:10295800EAFFFF0A0490A0E197FFFFEA3030A0E306
:10296800016C8DE2413066E5C0308DE234608DE562
:102978000050A0E3036066E039FCFFEA6F50DDE534
:1029880018208DE2060092E8000052E30900510386
:10299800DF00008A013C8DE2306081E2416063E53E
:1029A800C0208DE2026063E034308DE52CFCFFEA44
:1029B8000790A0E180FFFFEA48309DE5016043E20F
:1029C800000056E362FFFFDA100056E344331FD5D8
:1029D80038308DD5BC0000DA50331FE50420A0E163
:1029E80020408DE234708DE51090A0E30670A0E1E0
:1029F80038308DE5500094E8020000EA107047E294
:102A0800100057E3AD0000DA015085E2070055E3F6
:102A1800102082E200A088E5049088E590508DE5BA
:102A280094208DE5088088D2F3FFFFDA8C208DE2B0
:102A38000610A0E10400A0E14D1700EB000050E3F0
:102A4800D902001AC0808DE294209DE590509DE542
:102A5800E9FFFFEA000059E36F10CDE5EAFCFFBA91
:102A68000150A0130050A003031092E101508513F8
:102A7800000055E38070C7E3E3FCFF1AF4FBFFEAAC
:102A88000240A0E1013083E2070053E390308DE576
:102A980038309DE5054084E0280088E894408DE5BD
:102AA800088088D2070000DA20008DE28C208DE2B1
:102AB800030090E82E1700EB000050E33DFFFF1ADB
:102AC80094409DE5C0808DE248209DE574309DE5E9
:102AD80044109DE5030052E134209DE5019082E019
:102AE8003A0000CA010017E33800001A48209DE5A3
:102AF80034109DE5025081E0055069E0023063E042
:102B0800030055E10560A0B10360A0A1000056E3F1
:102B1800090000DA90209DE5012082E2064084E069
:102B2800070052E3009088E5046088E594408DE54D
:102B380090208DE5088088D29D0200CA000056E3E7
:102B48000350A0B1035066A0000055E3FBFDFFDA77
:102B5800100055E3150300DAD0241FE51060A0E348
:102B680038208DE590309DE50420A0E120909DE57A
:102B780024409DE5020000EA105045E2100055E3AC
:102B880028FFFFDA013083E2070053E3102082E2D6
:102B980000A088E5046088E590308DE594208DE5F7
:102BA800088088D2F3FFFFDA8C208DE20410A0E1C0
:102BB8000900A0E1EE1600EB000050E364FFFF1AE5
:102BC800C0808DE294209DE590309DE5E9FFFFEA05
:102BD80090209DE554109DE5012082E258009DE576
:102BE800014084E0070052E3030088E894408DE543
:102BF80090208DE5088088D2BBFFFFDA20008DE2A7
:102C08008C208DE2030090E8D91600EB000050E319
:102C1800E8FEFF1AC0808DE274309DE594409DE582
:102C2800B1FFFFEA010017E3A3FEFF1A34209DE578
:102C3800070055E394408DE5002088E590508DE528
:102C4800043088E5C1FEFFDA20008DE28C208DE299
:102C5800030090E8C61600EB000050E3D5FEFF1A0B
:102C6800C0808DE294409DE590509DE5B8FEFFEA56
:102C780020008DE28C208DE2030090E8BC1600EB6A
:102C8800000050E3CBFEFF1AC0808DE294409DE522
:102C980090509DE590FEFFEA20008DE28C208DE2A9
:102CA800030090E8B21600EB000050E3C1FEFF1AE3
:102CB800C0808DE294409DE590509DE590FEFFEA2E
:102CC8000240A0E10760A0E134709DE5015085E273
:102CD80038309DE5064084E0070055E390508DE5C7
:102CE80094408DE5480088E898FEFFDA20008DE2E0
:102CF8008C208DE2030090E89D1600EB000050E365
:102D0800ACFEFF1A94409DE590509DE5C0808DE291
:102D18008FFEFFEAC0308DE20360A0E138708DE5D8
:102D28000570A0E118508DE2300095E80400A0E19C
:102D38000510A0E10A20A0E30030A0E32D1E00FA50
:102D4800302082E2012066E50400A0E10510A0E140
:102D58000030A0E30A20A0E3261E00FA0040A0E10C
:102D68000150A0E1053094E1EFFFFF1AC0208DE289
:102D78000630A0E134608DE50750A0E1026066E00E
:102D880038709DE536FBFFEA2D50A0E318408DE230
:102D9800180094E8003073E20040E4E2000059E3D0
:102DA80018308DE51C408DE56F50CDE58070C7A3C8
:102DB800F2FEFFEA0010A0E3010059E16F10CDE533
:102DC80011FCFFBA8070C7E30950A00120FBFF0A7D
:102DD8000DFCFFEA4CC09DE50C20A0E10C00A0E131
:102DE80050C09DE50C30A0E10C10A0E1F61D00FAE2
:102DF800000050E35F02001A40309DE5010079E3CE
:102E08002050C3E30690A0030200000A000059E323
:102E1800470055034F01000A50309DE5006053E21A
:102E2800013C87E33C308DE5FB0100BA460055E3E1
:102E38006602000A4C309DE518308DE50030A0E3AD
:102E480038308DE5450055E34C01001A0200A0E337
:102E580084108DE200008DE510108DE578008DE27C
:102E680074108DE2014089E20C008DE518209DE583
:102E78000630A0E104408DE508108DE520009DE5B1
:102E8800C00300EB34008DE534309DE5044083E059
:102E98000030A0E318009DE50610A0E10020A0E3A3
:102EA80007F7FFFA000050E30430A0110900001AE8
:102EB80084309DE5030054E10600009A3010A0E339
:102EC800012083E284208DE50010C3E584309DE570
:102ED800030054E1F9FFFF8A34209DE5470055E3DC
:102EE800033062E048308DE58C01001A74309DE5AE
:102EF800030073E30050A0A30150A0B3090053E1FD
:102F0800015085C3000055E36B01000A40209DE590
:102F1800022042E240208DE5013043E24020DDE519
:102F2800000053E37C20CDE52D20A0B32B20A0A3E7
:102F380074308DE5003063B2090053E37D20CDE5A0
:102F4800040200DA8BC08DE20C00A0E1CC181FE56A
:102F58009321C1E0C32FA0E1411162E0012181E08A
:102F6800822043E0302082E2090051E30130A0E1F1
:102F7800012060E5F4FFFFCA0010A0E1303083E2D1
:102F8800FF2003E2012061E501005CE13D02009AB7
:102F98007E108DE20030A0E1000000EA0120D3E4B9
:102FA8000C0053E10120C1E4FBFFFF1A013083E26A
:102FB800030060E07E308DE2000083E048209DE55C
:102FC8007C308DE2003063E0010052E364308DE52F
:102FD800036082E00F0200DA0020A0E354309DE590
:102FE80044208DE5036086E0C63FC6E138209DE5B4
:102FF800000052E34401001A18308DE53C709DE54D
:103008000290A0E16F50DDE59BFAFFEA0740C4E3B8
:10301800003094E54C308DE5043094E550308DE572
:10302800083084E230308DE5ECFAFFEA403017E2F0
:10303800BA00000A30309DE5B010D3E1000059E332
:103048006F20CDE5044083E20120A0E10030A0E339
:10305800BA0000AA30408DE51BFBFFEA405017E29A
:1030680030309DE59700000AB050D3E10010A0E38E
:103078000500A0E1000059E36F20CDE5044083E29C
:1030880018008DE51C108DE5B80100BA0130A013B9
:103098000030A003000055E30350A0010150831342
:1030A800000055E330408DE58070C7E368FAFF0AF9
:1030B8000250A0E131FEFFEA100017E30800001AF1
:1030C800400017E30600000A30209DE5003092E535
:1030D800042082E230208DE5B822DDE1B020C3E192
:1030E8006EF9FFEA30209DE5003092E5042082E287
:1030F80030208DE528209DE5002083E567F9FFEA6B
:10310800400017E36900000A30309DE5B020D3E1A4
:10311800043083E230308DE50030A0E32CFBFFEA79
:10312800400017E35600000A30209DE5F060D2E128
:10313800FAFBFFEAAC2A1FE590309DE538208DE5C3
:1031480061FCFFEA20008DE28C208DE2030090E80C
:10315800871500EB000050E396FDFF1AC0808DE252
:1031680094409DE5CFFCFFEA0120A0E390309DE567
:10317800EC1A1FE5023083E0024084E0070053E3C5
:10318800001088E5042088E594408DE590308DE5B1
:10319800088088D2920000CA48309DE5053093E146
:1031A8008C00000A90309DE554209DE5013083E2B3
:1031B80058109DE5044082E0070053E3060088E8C4
:1031C80094408DE590308DE5088088D2560100CA7C
:1031D800005065E2000055E3AC0000DA100055E34A
:1031E800582B1FD538208DD5960000DA642B1FE5A3
:1031F8001060A0E338208DE520909DE50420A0E133
:1032080024409DE5020000EA105045E2100055E315
:103218008B0000DA013083E2070053E3102082E2DA
:1032280000A088E5046088E590308DE594208DE560
:10323800088088D2F3FFFFDA8C208DE20410A0E129
:103248000900A0E14A1500EB000050E3C0FDFF1A99
:10325800C0808DE294209DE590309DE5E9FFFFEA6E
:1032680094309DE5000053E324909DE552FDFF0A4C
:1032780020009DE58C208DE20910A0E13C1500EBB3
:103288004DFDFFEA30109DE5006091E50630A0E1B4
:10329800C64FA0E1041081E218308DE51C408DE591
:1032A8000620A0E10430A0E130108DE5DAF9FFEA4C
:1032B80030109DE5002091E5041081E20030A0E384
:1032C80030108DE5C2FAFFEA006093E5044083E21E
:1032D8000620A0E10030A0E3000059E36F50CDE5DF
:1032E80018208DE51C308DE530408DB5A3FDFFBA63
:1032F80018208DE2060092E80100A0E10130A01339
:103308000030A003022090E101308313000053E352
:1033180030408DE58070C7E398FDFF1A9EFAFFEAFA
:103328006F30CDE50030A0E330109DE5002091E539
:10333800000059E3044081E2031082A144FFFFBA70
:10334800000051E30000590330408DE58070C7E369
:1033580052FBFF0A5CFAFFEA50309DE5006053E239
:10336800013C87E33C308DE5A90000BA4750A0E353
:103378000190A0E34C309DE538008DE518308DE5CF
:103388000200A0E384108DE201028DE810108DE5A3
:1033980078008DE274108DE20C008DE518209DE513
:1033A8000630A0E108108DE520009DE5750200EBD0
:1033B800470055E334008DE50940A011B1FEFF1A1E
:1033C800010017E384309D05C2FEFF0A34309DE5F5
:1033D800094083E0ADFEFFEA010017E3D7FBFF0ACF
:1033E8006FFFFFEA20008DE28C208DE2030090E859
:1033F800DF1400EB000050E3EEFCFF1AC0808DE202
:1034080074509DE594409DE562FFFFEA027087E3F2
:1034180030408DE540008DE58CCD1FE57AFAFFEA56
:1034280020008DE28C208DE2030090E8D01400EBA0
:10343800000050E3DFFCFF1AC0808DE294409DE558
:1034480029FCFFEA0240A0E1013083E238209DE533
:10345800070053E3054084E0240088E890308DE5B8
:1034680094408DE5088088D2080000DA20008DE2BB
:103478008C208DE2030090E8BD1400EB000050E3BF
:10348800CCFCFF1A90308DE2180093E8C0808DE2E2
:10349800013083E248209DE5070053E390308DE535
:1034A80034309DE5044082E094408DE5003088E5A5
:1034B800042088E5A0FBFFDAE3FCFFEA44308DE551
:1034C80044609DE548209DE5060052E10630A0E1F4
:1034D800810000CA010017E344309D1554209D1552
:1034E800026083106720A0E3C63FC601C63FC6112D
:1034F80040208DE5BCFEFFEA34009DE51BF8FFEB9C
:103508000590A0E10060A0E180FAFFEA2D50A0E359
:103518003C709DE56F50CDE50090A0E359F9FFEAB6
:1035280040309DE5650053E3D80000DA40309DE562
:10353800660053E374309DE5DFFFFF1A000053E394
:103548000360A0E144308DE5B70000DA000059E3DC
:103558000200001A010017E3C33FC301A2FEFF0ADD
:1035680044309DE554209DE5026083E0096086E0D3
:10357800C63FC6E19CFEFFEA94109DE590209DE5BC
:10358800F05E1FE579F9FFEA20008DE28C208DE2DC
:10359800030090E8761400EB000050E385FCFF1A66
:1035A800C0808DE294409DE5C4FCFFEA0690A0E14E
:1035B80081FCFFEA20008DE28C208DE2030090E878
:1035C8006B1400EB000050E37AFCFF1A74309DE5A1
:1035D80048209DE594409DE5023063E0C0808DE27F
:1035E80055FDFFEA90309DE5585F1FE57CFBFFEA3B
:1035F800060059E30960A0310660A023C63FC6E172
:1036080018308DE5703F1FE530408DE534308DE58D
:10361800B5FAFFEA4750A0E30190A0E34C309DE5DE
:1036280018308DE550309DE5460055E3026183E290
:103638009100001A0300A0E384108DE201028DE8D6
:1036480010108DE578008DE274108DE20630A0E14F
:103658000C008DE518209DE508108DE520009DE5FE
:10366800C80100EB2D30A0E334008DE538308DE53E
:1036780034309DE50040D3E530C044E200407CE2B0
:103688000030A0E318009DE50610A0E10020A0E3AB
:103698000C40A4E00AF5FFFA000050E30130A0E373
:1036A8000030A013030014E10130691274308D1545
:1036B80074309D0534209DE5093083E0034082E0A5
:1036C800F2FDFFEA2D30A0E30350A0E16F30CDE515
:1036D8005BF9FFEA30408DE52CFAFFEA44309DE5BE
:1036E80054209DE5000053E348309DE5026083E0E7
:1036F8006720A0E344309DD5013063D2036086D0B3
:10370800C63FC6E140208DE537FEFFEAC93FC9E163
:103718000960A0E118308DE50090A0E130408DE50A
:1037280044008DE56F50DDE5D3F8FFEA20008DE217
:103738008C208DE2030090E80D1400EB000050E3AC
:103748001CFCFF1A90308DE2C0808DE274509DE51C
:10375800180093E89DFEFFEA3020A0E3023083E0E2
:103768007F30CDE57E20CDE580008DE212FEFFEAB8
:1037780030408DE54DFEFFEA0330A0E340109DE5A3
:103788000360A0E118308DE508319FE5470051E35B
:1037980004219FE50090A0E30320A0D18070C7E337
:1037A80044908DE534208DE56F50DDE5B2F8FFEAF1
:1037B800E8209FE590309DE538208DE51AFCFFEA6A
:1037C800D8209FE590309DE538208DE5ACFCFFEAD8
:1037D8000300A0E34C409DE584108DE201028DE8D2
:1037E80010108DE578008DE274108DE250309DE563
:1037F8000C008DE50420A0E108108DE520009DE572
:10380800600100EB0030A0E334008DE518408DE541
:1038180038308DE595FFFFEA013017E2EDFDFF1A1C
:1038280044308DE5C63FC6E1EFFDFFEA000059E3ED
:103838000300001A010017E30130A0030360A00190
:10384800E9FDFF0A54309DE5016083E2096086E0E6
:10385800C63FC6E1E4FDFFEA30309DE5009093E500
:10386800040083E2000059E30130DBE530008DE518
:103878000CB0A0E1AEF7FFAAACF7FFEA2D30A0E349
:1038880038308DE56EFDFFEA7E008DE2CAFDFFEA65
:1038980074309DE59FFDFFEA00810108048101085D
:1038A800607A010810C09FE50230A0E10120A0E184
:1038B8000010A0E100009CE544F7FFEA00000020AA
:1038C800F0402DE90140A0E101CBA0E300E0A0E336
:1038D800646094E546DE4DE20CD04DE2BC10D1E1C7
:1038E80064608DE51C6094E5BE70D4E10210C1E30C
:1038F8001C608DE5246094E5BC10CDE108C08DE521
:1039080014C08DE50D10A0E168C08DE2BE70CDE158
:1039180024608DE518E08DE500C08DE510C08DE5CB
:103928000070A0E129F7FFEB006050E2040000BA44
:103938000D10A0E10700A0E15A0700EB000050E3DA
:103948000060E0130600A0E1BC30DDE1400013E3B5
:10395800BC30D41140308313BC30C41146DE8DE234
:103968000CD08DE2F040BDE81EFF2FE158319FE5F5
:10397800003093E5000053E370402DE90050A0E1CA
:103988000140A0E10200000A382093E5000052E35C
:103998003400000AFC20D4E10238A0E1020713E356
:1039A8002338A0E10C00000A100094E5000050E361
:1039B8001400000A012013E21B00001A020013E39E
:1039C80014209405000050E3082084E50000A013AB
:1039D8001D00000A7040BDE81EFF2FE1100013E330
:1039E8003300000A040013E32100001A100094E5D4
:1039F800082082E3BC20C4E1000050E30228A0E1D3
:103A08002238A0E1EAFFFF1A0A2D03E2020C52E372
:103A1800E7FFFF0A0500A0E10410A0E1E30A00EBBC
:103A2800BC30D4E1100094E5E1FFFFEA0020A0E3F8
:103A3800143094E5000050E3003063E2183084E568
:103A4800082084E50000A013E1FFFF1AFC30D4E150
:103A5800800013E340308313BC30C4110000E0132E
:103A68007040BDE81EFF2FE10300A0E1EA0700EB6C
:103A7800C7FFFFEA301094E5000051E30700000A91
:103A8800403084E2030051E10200000A0500A0E191
:103A98003B0800EBFC20D4E10030A0E3303084E5A3
:103AA8000030A0E3100094E52420C2E3090084E874
:103AB800CEFFFFEA0930A0E3402082E3003085E52D
:103AC8000000E0E3BC20C4E1C1FFFFEA00000020E1
:103AD800D0C09FE5F0412DE900409CE548C194E540
:103AE80000005CE353CF840204E09CE548C18405F0
:103AF8001F005EE30160A0E10050A0E10280A0E1A8
:103B08000370A0E101108ED20F0000DA98309FE513
:103B1800000053E32100000A190EA0E300F020E39F
:103B280000C050E21D00000A0000A0E30110A0E35D
:103B380000E0A0E1483194E504008CE500308CE514
:103B480048C184E588018CE58C018CE5000055E3CB
:103B58000500001A0000A0E302E08EE204108CE5E4
:103B68000E618CE7F041BDE81EFF2FE10100A0E3E4
:103B78000E418CE0888084E588319CE5102EA0E118
:103B8800020083E188018CE5087184E5020055E3B1
:103B98008C319C05022083018C218C05ECFFFFEA07
:103BA8000000E0E3EEFFFFEA4C7A010800000000A5
:103BB800F04F2DE9103090E5105091E5030055E1E4
:103BC8000CD04DE20000A0C36B0000CA015045E2D2
:103BD800144081E200108DE5051194E7149080E20D
:103BE8000070A0E1011081E2050199E7611A00FA6D
:103BF80005A1A0E10A3089E0006050E20A8084E073
:103C080004308DE52F00000A0030A0E304B0A0E1E5
:103C180009E0A0E10320A0E104009BE40018A0E172
:103C28002118A0E1963121E02008A0E12138A0E187
:103C3800963023E000009EE50118A0E1212842E02B
:103C480000C8A0E10318A0E12C2882E02118A0E117
:103C5800201861E00208A0E1422881E02018A0E1D4
:103C6800021881E10B0058E104108EE44228A0E11B
:103C78002338A0E1E7FFFF2A0A3099E7000053E361
:103C88001000001A04209DE5043042E2030059E1C7
:103C98000B00002A043012E5000053E30800001A64
:103CA800083042E2030000EA002093E5000052E3F6
:103CB800043043E20200001A030059E1015045E2D2
:103CC800F8FFFF3A105087E500109DE50700A0E1D6
:103CD800700E00EB000050E3260000BA09C0A0E116
:103CE8000030A0E3016086E2042094E400009CE533
:103CF8000218A0E1213843E00018A0E1211883E070
:103D08002228A0E1202862E00108A0E1413882E0F1
:103D18002028A0E1032882E1040058E104208CE473
:103D28004338A0E1EFFFFF2A053199E7000053E38C
:103D3800053189E00F00001A042043E2020059E12E
:103D48000B00002A042013E5000052E30800001AC3
:103D5800083043E2030000EA002093E5000052E344
:103D6800043043E20200001A030059E1015045E221
:103D7800F8FFFF3A105087E50600A0E10CD08DE26D
:103D8800F04FBDE81EFF2FE1F04F2DE9401090E500
:103D98006CD04DE2000051E30040A0E102A0A0E198
:103DA80003B0A0E19C509DE50600000A0130A0E3A5
:103DB800442090E51332A0E10C0081E97E0C00EB71
:103DC8000030A0E3403084E500005BE30130A0B39D
:103DD8000030A0A3003085B5003085A504359FE5E7
:103DE8000B90A0E10320A0E10291CBB3093003E0DE
:103DF80009B0A0B1020053E11300000A0020A0E3BB
:103E08000030A0E30A00A0E10B10A0E12CF3FFFAB8
:103E1800008050E21E00000A0130A0E3A0209DE5CA
:103E2800000052E398209DE5003082E59A00000AE0
:103E3800B4049FE5A0309DE5000083E5010040E261
:103E48006CD08DE2F04FBDE81EFF2FE19C349FE55A
:103E580098209DE500005AE3003082E57D00000AC5
:103E68008C049FE5A0309DE5000053E3F3FFFF0AB3
:103E78000330D0E5A0209DE5000053E30830801210
:103E880003308002003082E56CD08DE2F04FBDE84F
:103E98001EFF2FE160208DE264308DE204208DE565
:103EA80000308DE50A20A0E10B30A0E10400A0E17C
:103EB800D50E00EB295AB0E11C008DE56C00001A04
:103EC80060809DE564509DE5055088E0433E85E2AD
:103ED800023083E2200053E3410E85C2403063C2C2
:103EE8001993A0C1209063D2020080C23A0089C110
:103EF8001A09A0D183F1FFFA0130A0E344308DE51F
:103F0800015045E21F1641E20020A0E3E4339FE59B
:103F1800DDF0FFFAED3F8FE20C0093E8B4F1FFFA11
:103F28003B3E8FE20C0093E8D8F0FFFA0060A0E176
:103F38000500A0E10170A0E17AF1FFFAE73F8FE206
:103F48000C0093E8AAF1FFFA0020A0E10130A0E1FB
:103F58000600A0E10710A0E1CCF0FFFA0060A0E1A4
:103F68000170A0E1EFF2FFFA0020A0E30C008DE55C
:103F78000030A0E30600A0E10710A0E1D5F2FFFAA7
:103F8800000050E39901001A0C609DE5160056E305
:103F98000130A08330308D850B00008A6C339FE59B
:103FA800863183E0030093E80A20A0E10B30A0E10A
:103FB800D7F2FFFA000050E3013046120C308D159D
:103FC8000030A01330008D0530308D15085065E0A5
:103FD800013055E210308DE50030634220308D45C8
:103FE8000030A0530030A04320308D5510308D454F
:103FF8000C309DE5000053E3730100BA10209DE5E5
:1040080034308DE5032082E00030A0E310208DE5F8
:104018002C308DE590309DE5090053E32000008A9F
:10402800050053E30150A0D30050A0C3043043C29D
:1040380090308DC590309DE5023043E2030053E394
:1040480003F19F97760100EA644A00080C470008CC
:10405800944A0008604D0008FF94C9E390329FE538
:104068000F96C9E3000059E38C029FE50300A011F5
:104078007BFFFFEAFF34CBE30F36C3E3FF5F45E284
:10408800FF3583E344808DE50A00A0E1035045E253
:10409800031683E360809DE59AFFFFEA5C029FE5D3
:1040A80066FFFFEA0010A0E30400A0E1441084E5E5
:1040B80090108DE59C0B00EB0030E0E340308DE57F
:1040C80018308DE50130A0E30090A0E190209DE537
:1040D800400084E594208DE528308DE564309DE529
:1040E8000320E0E10C109DE50E0051E3A22FA0E1B2
:1040F8000020A0C3000052E38800000A18809DE554
:10410800000058E30020A0C30120A0D394109DE52F
:10411800F8319FE5A12F12E00C209DE5823183E064
:104128000C0093E810208DE514308DE55902001A33
:104138000A60A0E10B70A0E10600A0E10710A0E171
:1041480002A0A0E103B0A0E1BEF1FFFA75F2FFFA08
:104158000050A0E1F3F0FFFA0A20A0E10B30A0E143
:1041680023F1FFFA0020A0E10130A0E10600A0E160
:104178000710A0E144F0FFFA30C085E2010058E3DF
:104188000020A0E10130A0E100C0C9E501A089E25A
:104198003200000A0020A0E374319FE514F1FFFA11
:1041A8000020A0E30030A0E30060A0E10170A0E1DE
:1041B80043F2FFFA000050E3DE03001A09B0A0E161
:1041C80020408DE510908DE2000399E818409DE5A8
:1041D800090000EA0020A0E334319FE504F1FFFA6A
:1041E8000020A0E30030A0E30060A0E10170A0E19E
:1041F80033F2FFFA000050E3CC03001A0820A0E1D4
:104208000930A0E10600A0E10710A0E18DF1FFFA56
:1042180044F2FFFA0050A0E1C2F0FFFA0820A0E142
:104228000930A0E1F2F0FFFA0020A0E10130A0E19E
:104238000600A0E10710A0E113F0FFFA30C085E204
:1042480001C0CAE40AC06BE00C0054E10020A0E100
:104258000130A0E1DEFFFF1A0B90A0E120409DE5B0
:104268000200A0E10310A0E108F0FFFA0020A0E19D
:104278000130A0E10060A0E10170A0E110108DE222
:10428800030091E813F2FFFA000050E32304000A48
:1042980024908DE50A90A0E101505AE5013049E2E9
:1042A80024209DE5020000EA020053E1A403000A6D
:1042B800015073E5390055E3019083E2F9FFFF0AE5
:1042C800015085E20050C3E5AE0000EA0000A0E11D
:1042D80061436F63A787D23FB3C8608B288AC63F04
:1042E800FB799F501344D33F0000F07F39810108C8
:1042F8000F270000488101080000F83F3C810108B1
:10430800388101080000F03F00001440707B01086C
:10431800807A01080000244000001C400000E03FB3
:1043280028209DE5000052E3D300001A2C709DE57B
:1043380020509DE528609DE510209DE5000055E38F
:10434800000052C30230A0E1070000DA020055E184
:104358000530A0B120109DE5055063E0011063E031
:10436800023063E020108DE510308DE52C309DE59E
:10437800000053E3160000DA28209DE5000052E310
:104388004E02000A000057E34C02000A0610A0E1A2
:104398000720A0E10400A0E1400C00EB1C209DE5F3
:1043A8000010A0E10060A0E10400A0E1BF0B00EB59
:1043B8000080A0E11C109DE50400A0E1FE0A00EBCE
:1043C8002C309DE5073053E02C308DE51C808DE5C1
:1043D8003A02001A0110A0E30400A0E1AA0B00EBC6
:1043E80034309DE5000053E30070A0E12902000A83
:1043F8000010A0E10320A0E10400A0E1270C00EBDD
:1044080090309DE5010053E30070A0E19D0200CAD1
:1044180000005AE39B02001AFF34CBE30F36C3E3D4
:10442800000053E30080A0130B00001A0281CBE3C5
:10443800288AA0E1088AA0E1000058E30600000AE3
:104448000180A0E320309DE5013083E220308DE536
:1044580010309DE5013083E210308DE534309DE564
:10446800000053E30100A0038702001A10209DE515
:10447800020080E01F0010E2BD01000A203060E267
:10448800040053E3EB0300DA20309DE51C0060E2F2
:10449800003083E020308DE5003082E010308DE57B
:1044A800005085E020309DE5000053E3040000DA69
:1044B8000320A0E11C109DE50400A0E1380C00EBEE
:1044C8001C008DE510309DE5000053E3040000DA80
:1044D8000710A0E10320A0E10400A0E1300C00EBEC
:1044E8000070A0E130309DE5000053E36C02001A33
:1044F80018309DE590209DE5000053E30130A0D3DE
:104508000030A0C3020052E30030A0D3000053E300
:10451800A001000A18309DE5000053E36E01001A5F
:104528000710A0E10520A0E30400A0E1A90A00EB20
:104538000010A0E10070A0E11C009DE5550C00EB07
:10454800000050E324908DC5630100DA3130A0E308
:104558000C209DE5012082E20C208DE524209DE5BC
:104568000030C2E5019082E20710A0E10400A0E15A
:10457800910A00EB000056E30200000A0610A0E1D1
:104588000400A0E18C0A00EB1C109DE50400A0E1EA
:10459800890A00EB0020A0E3A0109DE50C309DE502
:1045A8000020C9E5020051E198209DE5013083E231
:1045B800003082E5CF02000A24009DE5009081E5E5
:1045C8006CD08DE2F04FBDE81EFF2FE10030A0E374
:1045D80020209DE534308DE50C309DE5022063E018
:1045E800003063E220208DE52C308DE588FEFFEA5F
:1045F8000C909DE50900A0E1CAEFFFFA0130A0E1A7
:104608000020A0E10710A0E10600A0E12CF1FFFACC
:10461800000050E30930A001013043020C308D0541
:1046280058FEFFEA0050A0E30400A0E1445084E5EE
:104638000510A0E13C0A00EB0C209DE564309DE5E7
:104648000E0052E30020A0C30120A0D3050053E1CF
:104658000020A0B3050052E10090A0E1400084E5ED
:104668007703001A0010E0E394208DE50120A0E311
:1046780040108DE518108DE528208DE590209DE5EA
:10468800010052E3F00200DA18309DE5017043E2C0
:104698002C309DE5070053E12C309DB534209DB5A5
:1046A800073063B0033082B0037067A034308DB533
:1046B80018309DE52C708DB50070A0B3000053E351
:1046C80020309DB518209DB5035062B00030A0B3CE
:1046D80020509DA518309DA520209DE5032082E04F
:1046E80020208DE510209DE50110A0E3033082E035
:1046F8000400A0E110308DE5E30A00EB0060A0E1C2
:104708000CFFFFEA0030A0E328308DE50C309DE572
:1047180094209DE5023083E040308DE5013083E24E
:10472800000053E318308DE57C0200DA18309DE56F
:104738000E0053E30050A083015005920300A0E14E
:104748000010A0E3170050E3441084E50800009A25
:104758000120A0E30430A0E30210A0E18330A0E12F
:10476800142083E2000052E1012081E2F9FFFF9A60
:10477800441084E50400A0E1EB0900EB000055E3D8
:1047880024008DE5400084E53403000A0A80A0E196
:104798000B90A0E10C109DE5000051E348808DE5E9
:1047A8004C908DE54F0100DAA0241FE50F3001E29F
:1047B8004152A0E1833182E0100015E3C00093E884
:1047C8003A01000AC0341FE50A00A0E10B10A0E17D
:1047D800203083E20C0093E81AF0FFFA0390A0E37C
:1047E80000A0A0E101B0A0E10F5005E2000055E3F0
:1047F8000C00000AF0841FE5010015E30600000A1A
:104808000600A0E10710A0E10C0098E878EFFFFA95
:104818000060A0E10170A0E1019089E2C550B0E11B
:10482800088088E2F3FFFF1A0620A0E10730A0E124
:104838000A00A0E10B10A0E102F0FFFA38008DE5B4
:104848003C108DE530309DE5000053E30600000A7A
:104858000020A0E358351FE538108DE2030091E8E9
:104868009CF0FFFA000050E34202001A0900A0E1A0
:104878002CEFFFFA38308DE20C0093E85CEFFFFA7A
:1048880070351FE50020A0E380EEFFFA18309DE5A3
:10489800000053E30060A0E10D7541E29D00000AAD
:1048A8000C309DE554308DE518309DE550308DE590
:1048B80028309DE5000053E32901000A50209DE5BA
:1048C800B8351FE5823183E00C0013E90000A0E34E
:1048D800BC151FE5DBEFFFFA0620A0E10730A0E1D9
:1048E80069EEFFFA38708DE2C00097E800A0A0E1F9
:1048F80001B0A0E10600A0E10710A0E189F0FFFAED
:104908000050A0E107EFFFFA0020A0E10130A0E18C
:104918000600A0E10710A0E15BEEFFFA305085E247
:1049280024809DE5FF5005E20020A0E10130A0E1D0
:104938000060A0E10170A0E10050C8E50A00A0E114
:104948000B10A0E172F0FFFA000050E3019088E23A
:104958003E00001A0620A0E10730A0E10000A0E315
:1049680064161FE548EEFFFA0020A0E10130A0E13F
:104978000A00A0E10B10A0E165F0FFFA000050E387
:104988003B02001A50209DE5010052E3D10000DAF5
:1049980024309DE550209DE5028083E00B0000EA6D
:1049A8000620A0E10730A0E10000A0E3B0161FE553
:1049B80035EEFFFA0A20A0E10B30A0E145F0FFFA3E
:1049C800000050E32A02001A080059E1C100000A59
:1049D8000A00A0E10B10A0E10020A0E3D0361FE5FB
:1049E80003EFFFFA0020A0E3DC361FE500A0A0E1FA
:1049F80001B0A0E10600A0E10710A0E1FCEEFFFA7B
:104A08000170A0E10060A0E146F0FFFA0050A0E1CB
:104A1800C4EEFFFA0020A0E10130A0E10600A0E109
:104A28000710A0E118EEFFFA305085E2FF5005E2CA
:104A38000150C9E40A20A0E10B30A0E10060A0E128
:104A48000170A0E123F0FFFA000050E3D3FFFF0A52
:104A580054309DE50C308DE5CAFEFFEA0030A0E336
:104A680028308DE594309DE5000053E3A30100DA7A
:104A78000E0053E30050A083015005920300A0E10B
:104A880040308DE518308DE52CFFFFEA0130A0E3BA
:104A980028308DE5F2FFFFEA18709DE5000057E326
:104AA8001802001A0020A0E3A8371FE510108DE2B5
:104AB800030091E8CEEEFFFA0A20A0E10B30A0E156
:104AC8000EF0FFFA000050E324908D050760A00166
:104AD8009DFEFF0A18709DE50760A0E194309DE5F2
:104AE8000330E0E124908DE50C308DE59DFEFFEA72
:104AF8000900A0E18BEEFFFA38308DE20C0093E854
:104B0800BBEEFFFA0020A0E3F8371FE5DFEDFFFA60
:104B18000060A0E10D7541E20020A0E31C381FE50C
:104B280038108DE2030091E8D7EDFFFA0620A0E1E6
:104B38000730A0E10080A0E10190A0E1F4EFFFFAC6
:104B4800005050E2CC00001A0620A0E1023187E2B2
:104B58000800A0E10910A0E1DEEFFFFA000050E331
:104B68005C00000A0570A0E124909DE50560A0E1C5
:104B7800D9FFFFEA1C00A0E320309DE5003083E068
:104B880020308DE510309DE5003083E0005085E051
:104B980010308DE542FEFFEA28309DE5000053E322
:104BA800EF00001A18808DE20950A0E1000598E88E
:104BB800050000EA0A10A0E10030A0E30A20A0E303
:104BC8000400A0E1030900EB00A0A0E10710A0E1A8
:104BD8000A00A0E1F5FBFFEB300080E20100C5E42C
:104BE800053069E0080053E1F1FFFFBA18309DE590
:104BF8001CA08DE50080A0E1010053E3035089A0CB
:104C0800015089B200A0A0E31C109DE50120A0E39B
:104C18000400A0E1620A00EB0710A0E11C008DE58A
:104C28009C0A00EB000050E3AC0100DA012055E5D6
:104C3800013045E2020000EA090053E17C01000A64
:104C4800012073E5390052E3015083E2F9FFFF0ABE
:104C5800012082E20020C3E50710A0E10400A0E1E2
:104C6800D50800EB000056E3A901000A00005AE34A
:104C780006005A1124908D050590A0013EFEFF0AFA
:104C88000A10A0E10400A0E124908DE5CA0800EB19
:104C98000590A0E138FEFFEA90309DE5010053E35E
:104CA800EB0100DA34809DE50100A0E3EEFDFFEAA8
:104CB80048B08DE2000C9BE80290A0E3CAFEFFEA30
:104CC8002C209DE51C109DE50400A0E1F30900EBF4
:104CD8001C008DE5BEFDFFEA48B08DE2000C9BE8A4
:104CE80024909DE5FCFCFFEA0C309DE5005063E252
:104CF800000055E31901000AF0391FE50F2005E20D
:104D0800823183E00C0093E848108DE2030091E8BB
:104D180037EEFFFA4552B0E138008DE53C108DE5DD
:104D28000290A0E3C6FEFF0A246A1FE5010015E30E
:104D38000200000A0C0096E82DEEFFFA019089E2C5
:104D4800C550B0E1086086E2F7FFFF1A38008DE52C
:104D58003C108DE5BAFEFFEA0130A0E328308DE56E
:104D680069FEFFEA50809DE5601A1FE501B048E240
:104D78008B1181E00620A0E10730A0E1030091E853
:104D88001BEEFFFA38708DE2C00097E858008DE5F9
:104D98005C108DE50710A0E10600A0E161EFFFFAC5
:104DA8000050A0E1DFEDFFFA0130A0E10020A0E112
:104DB8000710A0E10600A0E133EDFFFA24309DE5DD
:104DC800305085E2010058E30060A0E10170A0E1E5
:104DD8000050C3E5019083E21900000A0980A0E1B0
:104DE80024309DE550209DE502A083E00020A0E34B
:104DF800E43A1FE50600A0E10710A0E1FCEDFFFA88
:104E08000170A0E10060A0E146EFFFFA0050A0E1C8
:104E1800C4EDFFFA0020A0E10130A0E10600A0E106
:104E28000710A0E118EDFFFA305085E20150C8E400
:104E380008005AE10060A0E10170A0E1EAFFFF1A52
:104E48000B9089E00020A0E3343B1FE558108DE269
:104E5800030091E80DEDFFFA0620A0E10730A0E17C
:104E68001CEFFFFA000050E3E000000A54309DE513
:104E7800015059E50C308DE507FDFFEA0070A0E30D
:104E88000760A0E1B0FDFFEA0080A0E3103097E5DD
:104E9800033187E0100093E5BF0800EB200060E2D3
:104EA80071FDFFEA0710A0E11C009DE5F90900EB80
:104EB800000050E38DFDFFAA0030A0E31C109DE523
:104EC8000A20A0E30400A0E1420800EB28309DE599
:104ED800000053E30C309DE5013043E21C008DE5F2
:104EE8000C308DE50C00001A90309DE540209DE5C2
:104EF800020053E30130A0C30030A0D3000052E306
:104F08000030A0C3000053E318208D0524FFFF0ADA
:104F180040309DE518308DE57DFDFFEA0610A0E1E3
:104F28000030A0E30A20A0E30400A0E1290800EB78
:104F380040209DE590109DE5000052E30230A0E17D
:104F48000130A0D30030A0C3020051E30030A0D349
:104F5800000053E30230A0010060A0E118308D0585
:104F6800EAFFFF1A000055E3040000DA0610A0E18A
:104F78000520A0E10400A0E1890900EB0060A0E1A0
:104F8800000058E328608D05F100001A18309DE5EF
:104F9800013043E2033089E024308DE501300AE234
:104FA8000950A0E10780A0E12C908DE520308DE527
:104FB8001C709DE528909DE5080000EA050800EBB7
:104FC8000910A0E10060A0E10030A0E30A20A0E3FE
:104FD8000400A0E1FF0700EB0090A0E10A50A0E167
:104FE8000810A0E10700A0E1F0FAFFEB0610A0E12D
:104FF80000B0A0E10700A0E1A60900EB0920A0E1AC
:1050080000A0A0E10810A0E10400A0E1BA0900EBAB
:105018000C2090E5000052E330208BE20030A0E144
:1050280010208DE53100001A0010A0E118008DE570
:105038000700A0E1970900EB0020A0E118309DE5EA
:105048000310A0E10400A0E118208DE5DA0700EBC9
:1050580090309DE518209DE5033092E10200001A8A
:1050680020309DE5000053E3E400000A00005AE305
:10507800820000BA90309DE503309AE10200001AE0
:1050880020309DE5000053E37C00000A000052E355
:10509800BF0000CA24309DE5050053E11030DDE56E
:1050A80001A085E20030C5E50A50A0E1C500000A6C
:1050B8000710A0E10030A0E30A20A0E30400A0E16B
:1050C800C40700EB090056E10070A0E10610A0E15A
:1050D8000030A0E30A20A0E30400A0E1B6FFFF1A15
:1050E800BC0700EB0060A0E10090A0E1BAFFFFEA76
:1050F8000120A0E3D1FFFFEA24009DE54FFBFFEA72
:105108000130A0E394308DE540308DE518308DE511
:105118000010A0E3035005E0441084E594FDFFEA85
:105128000E0053E30030A0830130A093F7FFFFEA9D
:105138000B90A0E120409DE524908DE50A90A0E128
:1051480010FDFFEA3020A0E30020C3E50C209DE518
:10515800012082E20C208DE5015059E557FCFFEA59
:1051680048308DE20C0093E80290A0E338208DE5EA
:105178003C308DE5B2FDFFEA18309DE5000053E3B1
:105188005AFEFF0A40509DE5000055E3D1FEFFDAC4
:105198000020A0E3883E1FE538108DE2030091E867
:1051A80013EDFFFA0060A0E10170A0E1010089E2BF
:1051B80038608DE53C708DE5DAECFFFA0620A0E159
:1051C8000730A0E10AEDFFFAB83E1FE50020A0E392
:1051D8002EECFFFA0C309DE5013043E20060A0E1BF
:1051E80054308DE50D7541E250508DE5AFFDFFEA75
:1051F80058308DE20C0093E80000A0E3E81E1FE59C
:1052080021ECFFFA0620A0E10730A0E140EEFFFA0A
:10521800000050E30100001AAEFEFFEA0390A0E18F
:10522800013059E5300053E3013049E2FAFFFF0A43
:1052380006FEFFEA3130A0E30C209DE5012082E262
:105248000C208DE50030C9E582FEFFEA44209DE58B
:10525800000052E360309D05433E83120330831201
:105268002C709D152C709D053630630220509DE5ED
:1052780018FDFFEA54309DE50C308DE506FCFFEA89
:10528800000052E328908DE50710A0E11C708DE521
:105298002C909DE50870A0E110809DE50A0000DAD9
:1052A8000120A0E30400A0E1BD0800EB0710A0E185
:1052B8001C008DE5F70800EB000050E3590000DA08
:1052C800390058E34700000A31808BE206A0A0E1CC
:1052D8000080C5E528609DE5015085E25DFEFFEA96
:1052E8000300001A010018E30100000A4EFEFFEA5D
:1052F8000350A0E1013055E5300053E3013045E2A9
:10530800FAFFFF0A53FEFFEA0070A0E30760A0E17E
:10531800F1FDFFEA24908DE50590A0E199FCFFEAF4
:105328000620A0E10730A0E110108DE2030091E80B
:10533800E3EDFFFA000050E37EFFFF0A010015E3EA
:1053480024908DE57CFFFF0A01505AE50A90A0E100
:10535800D1FBFFEA041096E50400A0E1F20600EB99
:105368000050A0E1102096E5022082E20221A0E18F
:105378000C1086E20C0080E240EFFFEB0510A0E184
:105388000120A0E30400A0E1850800EB28008DE5DA
:10539800FDFEFFEA1C708DE50870A0E110809DE518
:1053A800390058E328908DE52C909DE50D00000A02
:1053B800018088E20080C5E506A0A0E1015085E2F1
:1053C80028609DE523FEFFEA0930A0E11C708DE509
:1053D80006A0A0E10870A0E12C909DE510809DE555
:1053E8000360A0E107FEFFEA3920A0E306A0A0E1E0
:1053F8000020C5E528609DE5015085E20BFEFFEA27
:105408001C708DE50870A0E110809DE5390058E317
:1054180028908DE52C909DE5F2FFFF0A00005AE3E5
:10542800A8FFFFCAA8FFFFEAA7FFFF1A010018E3B9
:10543800A5FFFF0AA1FFFFEA3C00601218FCFF0A63
:10544800CCFDFFEA0030E0E394508DE518308DE59F
:1054580029FBFFEA00005AE3EEFBFF0A10FEFFEA11
:1054680024909DE51CFBFFEAFC30D1E10328A0E174
:10547800020712E3F0412DE90150A0E10070A0E11C
:105488003400001A042091E5023B83E3000052E354
:10549800BC30C1E1500000DA284095E5000054E333
:1054A8005000000A0020A0E30338A0E1010203E253
:1054B8002088B0E1006097E52338A0E1002087E567
:1054C8005F00000A502095E5040013E30500000A78
:1054D800301095E5043095E5000051E3022063E0C3
:1054E8003C309515022063100030A0E31C1095E5B0
:1054F8000700A0E10FE0A0E114FF2FE1010070E335
:105508003B00000A0010A0E3FC30D5E1102095E52F
:10551800023BC3E3010A13E3BC30C5E1041085E58F
:10552800002085E54400001A301095E5000051E39D
:10553800006087E52B00000A403085E2030051E156
:105548000700A0118E01001B0000A0E3300085E5D4
:10555800F041BDE81EFF2FE1106091E5000056E321
:105568002000000A2228A0E1030012E30030A01363
:10557800004091E514309105044066E0000054E3D2
:10558800006081E5083081E5030000CA150000EAE3
:10559800000054E3006086E0120000DA0430A0E165
:1055A8000620A0E11C1095E50700A0E124C095E5C0
:1055B8000FE0A0E11CFF2FE1000050E3044060E091
:1055C800F2FFFFCA0000E0E3BC30D5E1403083E3DE
:1055D800BC30C5E1F041BDE81EFF2FE13C2091E55C
:1055E800000052E3ABFFFFCA0000A0E3F041BDE8B2
:1055F8001EFF2FE1001097E51D0051E3F0FFFF8A21
:105608009C309FE53331A0E1013003E2013033E201
:10561800EBFFFF1AFC20D5E110C095E5022BC2E391
:10562800010A12E3043085E5BC20C5E100C085E528
:10563800BCFFFF0A000051E3BAFFFF1A500085E5DE
:10564800B8FFFFEA0820A0E10130A0E31C1095E5AF
:105658000700A0E10FE0A0E114FF2FE1010070E3D3
:105668000020A0E10200000ABC30D5E1284095E501
:1056780094FFFFEA003097E5000053E3F9FFFF0AC3
:10568800160053E31D005313BC30D511403083136B
:10569800006087050800A0010200A011BC30C511F8
:1056A800CBFFFFEA0100402010402DE9004050E206
:1056B80008D04DE20200000A383094E5000053E3B8
:1056C8000900000AFC00D1E1000050E30200001AC2
:1056D80008D08DE21040BDE81EFF2FE10400A0E1D4
:1056E80008D08DE21040BDE85EFFFFEA04108DE5AA
:1056F800C90000EB04109DE5F1FFFFEA001050E23D
:1057080020309F1500009315E6FFFF1A10402DE981
:1057180014309FE514109FE5000093E5260300EB85
:105728001040BDE81EFF2FE1000000204C7A010860
:10573800B05600080000A0E31EFF2FE110402DE93D
:1057480008109FE51C0300EB1040BDE81EFF2FE189
:1057580020A00008F04F2DE90070A0E10040A0E370
:105768000430A0E30310A0E3045097E52C019FE563
:10577800BB2F87E23C0087E5E41287E5E82287E54E
:10578800E04287E50CD04DE2004085E5044085E520
:10579800084085E5644085E5BE40C5E1104085E5E3
:1057A800144085E5184085E5BC30C5E10410A0E14A
:1057B8005C0085E20820A0E3B7EEFFEB0130A0E330
:1057C8000920A0E3086097E5D4B09FE5D4A09FE541
:1057D800D4909FE5D4809FE520B085E524A085E599
:1057E800289085E52C8085E51C5085E50410A0E10E
:1057F800BE30C6E1BC20C6E15C0086E2004086E51A
:10580800044086E5084086E5644086E5104086E564
:10581800144086E5184086E50820A0E304308DE5AD
:105828009DEEFFEB1200A0E30220A0E30C5097E5E9
:105838000410A0E11C6086E520B086E524A086E57A
:10584800289086E52C8086E5BC00C5E1BE20C5E130
:10585800004085E5044085E5084085E5644085E528
:10586800104085E5144085E5184085E55C0085E233
:105878000820A0E388EEFFEB04309DE51C5085E589
:1058880020B085E524A085E5289085E52C8085E570
:10589800383087E50CD08DE2F04FBDE81EFF2FE1D0
:1058A80044570008D483000810840008688400085E
:1058B800988400080000A0E31EFF2FE1013041E2B8
:1058C80070402DE9834083E0043183E08341A0E107
:1058D8000160A0E1741084E26E0300EB005050E216
:1058E8000600000A0010A0E30C0085E2046085E5CC
:1058F800682084E2001085E5080085E566EEFFEB88
:105908000500A0E17040BDE81EFF2FE1E0309FE5F3
:1059180070402DE9005093E5383095E5000053E3D9
:105928000060A0E10500A00189FFFF0B2E5E85E263
:10593800043095E5013053E2084095E50400005A2B
:105948001D0000EA013043E2010073E3684084E28D
:105958001900000AFC20D4E1000052E3F8FFFF1A06
:105968000050A0E30020E0E30130A0E3BE20C4E142
:10597800BC30C4E1645084E5005084E5085084E5F7
:10598800045084E5105084E5145084E5185084E5EB
:105998000510A0E10820A0E35C0084E23EEEFFEBE6
:1059A8000400A0E1305084E5345084E5445084E597
:1059B800485084E57040BDE81EFF2FE1003095E5B2
:1059C800000053E30350A011D8FFFF1A0410A0E30E
:1059D8000600A0E1B8FFFFEB000050E3000085E5FA
:1059E8000050A011D1FFFF1A0C30A0E3003086E56B
:1059F800EFFFFFEA4C7A010810402DE910309FE5CF
:105A080010109FE5000093E56B0200EB1040BDE825
:105A18001EFF2FE14C7A010820A00008383090E5DD
:105A2800000053E31EFF2F1149FFFFEA1EFF2FE17D
:105A38001EFF2FE11EFF2FE11EFF2FE110402DE971
:105A480010309FE510109FE5000093E5390200EB48
:105A58001040BDE81EFF2FE100000020BC580008E0
:105A680010402DE910309FE510109FE5000093E5E8
:105A7800300200EB1040BDE81EFF2FE100000020BF
:105A88003C570008F0412DE90140A0E1E4709FE592
:105A98000050A0E1220500EB083097E5046093E58B
:105AA8000360C6E3064064E0FE4E84E20F4084E2F1
:105AB8002446A0E1014044E20446A0E1010A54E37F
:105AC800060000BA0010A0E30500A0E12D0A00EBD3
