:020000040800F2
:10000000000001209D130008E5130008E513000817
:10001000E5130008E5130008E513000800000000E0
:10002000000000000000000000000000E5130008D0
:10003000E513000800000000E5130008C96000088F
:10004000E5130008E5130008E5130008E5130008B0
:10005000E5130008E5130008E5130008E5130008A0
:10006000E5130008E5130008E5130008E513000890
:10007000E5130008E5130008E5130008E513000880
:10008000E5130008E5130008E5130008E513000870
:10009000E5130008E5130008E5130008F919000846
:1000A000E5130008E5130008E5130008E513000850
:1000B000E5130008E5130008E5130008E513000840
:1000C000E5130008E5130008E5130008E513000830
:1000D000E5130008E5130008E5130008E513000820
:1000E000E513000895610008611900080000000090
:1000F0000000000000000000000000000000000000
:100100000000000000000000E5130008E5130008EF
:10011000E5130008E5130008E5130008E5130008DF
:10012000E5130008E5130008E5130008E5130008CF
:10013000E5130008E5130008E5130008E5130008BF
:10014000E5130008E5130008E513000891190008FD
:10015000000000000000000000000000000000009F
:10016000000000000000000000000000000000008F
:10017000000000000000000000000000000000007F
:10018000000000000000000000000000000000006F
:10019000000000000000000000000000000000005F
:1001A000000000000000000000000000000000004F
:1001B000000000000000000000000000000000003F
:1001C000000000000000000000000000000000002F
:1001D000000000000000000000000000000000001F
:0401E0005FF8E0F1F3
:1001E80010B5054C237833B9044B13B10448AFF369
:1001F80000800123237010BDB00B00200000000018
:1002080010D5000808B5034B1BB103490348AFF3E9
:10021800008008BD00000000B40B002010D50008C5
:1002280081F0004102E000BF83F0004330B54FEA9F
:1002380041044FEA430594EA050F08BF90EA020F0C
:100248001FBF54EA000C55EA020C7FEA645C7FEA9F
:10025800655C00F0E2804FEA5454D4EB5555B8BFC2
:100268006D420CDD2C4480EA020281EA030382EA33
:10027800000083EA010180EA020281EA0303362DC5
:1002880088BF30BD11F0004F4FEA01314FF4801C98
:100298004CEA113102D0404261EB410113F0004FAA
:1002A8004FEA03334CEA133302D0524263EB430361
:1002B80094EA050F00F0A780A4F10104D5F1200EFF
:1002C8000DDB02FA0EFC22FA05F2801841F100015A
:1002D80003FA0EF2801843FA05F359410EE0A5F12E
:1002E80020050EF1200E012A03FA0EFC28BF4CF05F
:1002F800020C43FA05F3C01851EBE37101F0004515
:1003080007D54FF0000EDCF1000C7EEB00006EEB21
:100318000101B1F5801F1BD3B1F5001F0CD34908AB
:100328005FEA30004FEA3C0C04F101044FEA445202
:1003380012F5800F80F09A80BCF1004F08BF5FEA89
:10034800500C50F1000041EB045141EA050130BD69
:100358005FEA4C0C404141EB010111F4801FA4F10C
:100368000104E9D191F0000F04BF01460020B1FA61
:1003780081F308BF2033A3F10B03B3F120020CDA99
:100388000C3208DD02F1140CC2F10C0201FA0CF077
:1003980021FA02F10CE002F11402D8BFC2F1200CDC
:1003A80001FA02F120FA0CFCDCBF41EA0C01904092
:1003B800E41AA2BF01EB0451294330BD6FEA0404DB
:1003C8001F3C1CDA0C340EDC04F11404C4F12002C6
:1003D80020FA04F001FA02F340EA030021FA04F3D8
:1003E80045EA030130BDC4F10C04C4F1200220FA2F
:1003F80002F001FA04F340EA0300294630BD21FA6D
:1004080004F0294630BD94F0000F83F4801306BF32
:1004180081F480110134013D4EE77FEA645C18BF26
:100428007FEA655C29D094EA050F08BF90EA020FBD
:1004380005D054EA000C04BF1946104630BD91EAB5
:10044800030F1EBF0021002030BD5FEA545C05D1B8
:100458004000494128BF41F0004130BD14F58004F7
:100468003CBF01F5801130BD01F0004545F0FE416B
:1004780041F470014FF0000030BD7FEA645C1ABFA0
:10048800194610467FEA655C1CBF0B46024650EAD7
:10049800013406BF52EA033591EA030F41F4002103
:1004A80030BD00BF90F0000F04BF0021704730B589
:1004B8004FF4806404F132044FF000054FF000015E
:1004C80050E700BF90F0000F04BF0021704730B51F
:1004D8004FF4806404F1320410F0004548BF4042F4
:1004E8004FF000013EE700BF42004FEAE2014FEA49
:1004F80031014FEA02701FBF12F07F4393F07F4F24
:1005080081F06051704732F07F4208BF704793F026
:100518007F4F04BF41F40021704730B54FF4607439
:1005280001F0004521F000411CE700BF50EA01023C
:1005380008BF704730B54FF000050AE050EA0102E5
:1005480008BF704730B511F0004502D5404261EB55
:1005580041014FF4806404F132045FEA915C3FF496
:10056800D8AE4FF003025FEADC0C18BF03325FEA33
:10057800DC0C18BF033202EBDC02C2F1200300FAE4
:1005880003FC20FA02F001FA03FE40EA0E0021FA09
:1005980002F11444BDE600BF70B54FF0FF0C4CF4F7
:1005A800E06C1CEA11541DBF1CEA135594EA0C0FA9
:1005B80095EA0C0F00F0DEF82C4481EA030621EAE4
:1005C8004C5123EA4C5350EA013518BF52EA03351F
:1005D80041F4801143F4801338D0A0FB02CE4FF0D1
:1005E8000005E1FB02E506F00042E0FB03E54FF001
:1005F8000006E1FB03569CF0000F18BF4EF0010EF9
:10060800A4F1FF04B6F5007F64F5407404D25FEAF4
:100618004E0E6D4146EB060642EAC62141EA5551A7
:100628004FEAC52040EA5E504FEACE2EB4F1FD0CE9
:1006380088BFBCF5E06F1ED8BEF1004F08BF5FEA67
:10064800500E50F1000041EB045170BD06F0004619
:1006580046EA010140EA020081EA0301B4EB5C04C6
:10066800C2BFD4EB0C0541EA045170BD41F48011BE
:100678004FF0000E013C00F3AB8014F1360FDEBFE3
:10068800002001F0004170BDC4F10004203C35DABF
:100698000C341BDC04F11404C4F1200500FA05F342
:1006A80020FA04F001FA05F240EA020001F00042E3
:1006B80021F0004110EBD37021FA04F642EB060159
:1006C8005EEA430E08BF20EAD37070BDC4F10C0483
:1006D800C4F1200500FA04F320FA05F001FA04F247
:1006E80040EA020001F0004110EBD37041F1000133
:1006F8005EEA430E08BF20EAD37070BDC4F120053E
:1007080000FA05F24EEA020E20FA04F301FA05F2A5
:1007180043EA020321FA04F001F0004121FA04F24D
:1007280020EA020000EBD3705EEA430E08BF20EA1D
:10073800D37070BD94F0000F0FD101F00046400057
:1007480041EB010111F4801F08BF013CF7D041EAD9
:10075800060195F0000F18BF704703F000465200DD
:1007680043EB030313F4801F08BF013DF7D043EAAE
:100778000603704794EA0C0F0CEA135518BF95EA64
:100788000C0F0CD050EA410618BF52EA4306D1D1EB
:1007980081EA030101F000414FF0000070BD50EA0A
:1007A800410606BF1046194652EA430619D094EA94
:1007B8000C0F02D150EA013613D195EA0C0F05D17E
:1007C80052EA03361CBF104619460AD181EA0301D2
:1007D80001F0004141F0FE4141F470014FF000008A
:1007E80070BD41F0FE4141F4780170BD70B54FF025
:1007F800FF0C4CF4E06C1CEA11541DBF1CEA1355A5
:1008080094EA0C0F95EA0C0F00F0A7F8A4EB050486
:1008180081EA030E52EA03354FEA013100F088807D
:100828004FEA03334FF0805545EA131343EA126346
:100838004FEA022245EA111545EA10654FEA0026FB
:100848000EF000419D4208BF964244F1FD0404F5B4
:10085800407402D25B084FEA3202B61A65EB030510
:100868005B084FEA32024FF480104FF4002CB6EBCD
:10087800020E75EB030E22BFB61A754640EA0C004D
:100888005B084FEA3202B6EB020E75EB030E22BF8D
:10089800B61A754640EA5C005B084FEA3202B6EBCE
:1008A800020E75EB030E22BFB61A754640EA9C008D
:1008B8005B084FEA3202B6EB020E75EB030E22BF5D
:1008C800B61A754640EADC0055EA060E18D04FEA1B
:1008D800051545EA16754FEA06164FEAC30343EABB
:1008E80052734FEAC2025FEA1C1CC0D111F4801F88
:1008F8000BD141EA00014FF000004FF0004CB6E781
:1009080011F4801F04BF01430020B4F1FD0C88BF1F
:10091800BCF5E06F3FF6AFAEB5EB030C04BFB6EB2A
:10092800020C5FEA500C50F1000041EB045170BD1D
:100938000EF0004E4EEA113114EB5C04C2BFD4EB4A
:100948000C0541EA045170BD41F480114FF0000ECE
:10095800013C90E645EA060E8DE60CEA135594EA4A
:100968000C0F08BF95EA0C0F3FF43BAF94EA0C0F4D
:100978000AD150EA01347FF434AF95EA0C0F7FF4C2
:1009880025AF104619462CE795EA0C0F06D152EA16
:1009980003353FF4FDAE1046194622E750EA4106FA
:1009A80018BF52EA43067FF4C5AE50EA41047FF40B
:1009B8000DAF52EA43057FF4EBAE12E74FF0FF3C70
:1009C80006E000BF4FF0010C02E000BF4FF0010C41
:1009D8004DF804CD4FEA410C7FEA6C5C4FEA430CBA
:1009E80018BF7FEA6C5C1BD001B050EA410C0CBF09
:1009F80052EA430C91EA030F02BF90EA020F00206B
:100A0800704710F1000F91EA030F58BF994208BFD1
:100A180090422CBFD8176FEAE37040F0010070478E
:100A28004FEA410C7FEA6C5C02D150EA013C07D1E5
:100A38004FEA430C7FEA6C5CD6D152EA033CD3D030
:100A48005DF8040B704700BF8446104662468C462A
:100A58001946634600E000BF01B5FFF7B7FF00285D
:100A680048BF10F1000F01BD4DF808EDFFF7F4FF86
:100A78000CBF012000205DF808FB00BF4DF808ED11
:100A8800FFF7EAFF34BF012000205DF808FB00BF34
:100A98004DF808EDFFF7E0FF94BF012000205DF856
:100AA80008FB00BF4DF808EDFFF7CEFF94BF01200B
:100AB80000205DF808FB00BF4DF808EDFFF7C4FF04
:100AC80034BF012000205DF808FB00BF4FEA410257
:100AD80012F5001215D211D56FF47873B3EB625288
:100AE80012D94FEAC12343F0004343EA505311F0AF
:100AF800004F23FA02F018BF404270474FF0000041
:100B0800704750EA013005D111F0004008BF6FF07E
:100B1800004070474FF00000704700BF4A0011D2F4
:100B280012F5001211D20DD56FF47873B3EB62523F
:100B38000ED44FEAC12343F0004343EA505323FA4B
:100B480002F070474FF00000704750EA013002D1C0
:100B58004FF0FF3070474FF0000070474FEA4102F6
:100B6800B2F1E04324BFB3F5001CDCF1FE5C0DD903
:100B780001F0004C4FEAC0024CEA5070B2F1004F4D
:100B880040EB830008BF20F00100704711F0804F50
:100B980021D113F13872BCBF01F00040704741F415
:100BA80080114FEA5252C2F11802C2F1200C10FA19
:100BB8000CF320FA02F018BF40F001004FEAC123FD
:100BC8004FEAD32303FA0CFC40EA0C0023FA02F3A1
:100BD8004FEA4303CCE77FEA625307D150EA013377
:100BE8001EBF4FF0FE4040F44000704701F0004047
:100BF80040F0FE4040F40000704700BF80F0004025
:100C080002E000BF81F0004142001FBF5FEA4103DC
:100C180092EA030F7FEA226C7FEA236C6AD04FEADC
:100C28001262D2EB1363C1BFD21841404840414021
:100C3800B8BF5B42192B88BF704710F0004F40F4D3
:100C4800000020F07F4018BF404211F0004F41F4EF
:100C5800000121F07F4118BF494292EA030F3FD0BB
:100C6800A2F1010241FA03FC10EB0C00C3F12003CE
:100C780001FA03F100F0004302D5494260EB40005D
:100C8800B0F5000F13D3B0F1807F06D340084FEAC8
:100C9800310102F10102FE2A51D2B1F1004F40EBBD
:100CA800C25008BF20F0010040EA03007047490025
:100CB80040EB000010F4000FA2F10102EDD1B0FAF0
:100CC80080FCACF1080CB2EB0C0200FA0CF0AABFE5
:100CD80000EBC25052421843BCBFD0401843704783
:100CE80092F0000F81F4000106BF80F40000013289
:100CF800013BB5E74FEA41037FEA226C18BF7FEA60
:100D0800236C21D092EA030F04D092F0000F08BFA1
:100D18000846704790EA010F1CBF0020704712F088
:100D28007F4F04D1400028BF40F00040704712F1C7
:100D380000723CBF00F50000704700F0004343F02C
:100D4800FE4040F4000070477FEA226216BF084662
:100D58007FEA23630146420206BF5FEA412390EA25
:100D6800010F40F4800070474FF0000304E000BF1B
:100D780010F0004348BF40425FEA000C08BF7047CC
:100D880043F0964301464FF000001CE050EA010290
:100D980008BF70474FF000030AE000BF50EA0102A5
:100DA80008BF704711F0004302D5404261EB410192
:100DB8005FEA010C02BF84460146002043F0B643B7
:100DC80008BFA3F18053A3F50003BCFA8CF2083ADC
:100DD800A3EBC25310DB01FA02FC634400FA02FCE5
:100DE800C2F12002BCF1004F20FA02F243EB0200EC
:100DF80008BF20F00100704702F1200201FA02FC4E
:100E0800C2F1200250EA4C0021FA02F243EB020040
:100E180008BF20EADC7070474FF0FF3C06E000BFD7
:100E28004FF0010C02E000BF4FF0010C4DF804CD6B
:100E38004FEA40024FEA41037FEA226C18BF7FEA7B
:100E4800236C11D001B052EA530C18BF90EA010F7D
:100E580058BFB2EB030088BFC81738BF6FEAE1700C
:100E680018BF40F0010070477FEA226C02D15FEAA8
:100E7800402C05D17FEA236CE4D15FEA412CE1D014
:100E88005DF8040B704700BF844608466146FFE7DB
:100E98000FB5FFF7C9FF002848BF10F1000F0FBDBD
:100EA8004DF808EDFFF7F4FF0CBF012000205DF8B6
:100EB80008FB00BF4DF808EDFFF7EAFF34BF01203B
:100EC80000205DF808FB00BF4DF808EDFFF7E0FFD4
:100ED80094BF012000205DF808FB00BF4DF808ED25
:100EE800FFF7D2FF94BF012000205DF808FB00BF88
:100EF8004DF808EDFFF7C8FF34BF012000205DF86A
:100F080008FB00BFF8B50022002307460E46FFF78E
:100F1800B5FD28B938463146BDE8F84000F00AB8B2
:100F2800384606F1004100F005F8404261EB410106
:100F3800F8BD00BFD0B500220D4B06460F46FFF79F
:100F48002BFBFFF7EBFD0446FFF7ACFA0022094B39
:100F5800FFF722FB02460B4630463946FFF764F995
:100F6800FFF7DCFD0022234610431946D0BD00BF21
:100F78000000F03D0000F041844641EA000313F010
:100F8800030349D1403A23D30B6803604B6843609D
:100F98008B688360CB68C3600B6903614B694361ED
:100FA8008B698361CB69C3610B6A03624B6A4362D5
:100FB8008B6A8362CB6AC3620B6B03634B6B4363BD
:100FC8008B6B8363CB6BC36340304031403ADBD2D9
:100FD80030320BD30B6803604B6843608B688360C7
:100FE800CB68C36010301031103AF3D20C3205D3FD
:100FF80051F8043B40F8043B043AF9D2043208D0D3
:10100800D2071CBF11F8013B00F8013B01D30B8844
:1010180003806046704700BF082A13D38B07B1D0FE
:1010280010F00303AED0C3F10403D21ADB071CBFD0
:1010380011F8013B00F8013BA4D331F8023B20F83A
:10104800023B9FE7043AD9D3013A11F8013B00F873
:10105800013BF9D20B7803704B7843708B7883701F
:10106800604670474FEA410C7FEA6C5C02D150EA57
:10107800013C0AD14FEA430C7FEA6C5C02D152EA88
:10108800033C02D14FF0000070474FF00100704759
:1010980053B94AB9002908BF00281CBF4FF0FF31D7
:1010A8004FF0FF3000F074B9ADF1080C6DE904CED3
:1010B80000F006F8DDF804E0DDE9022304B070472B
:1010C8002DE9F0478C460446089E002B4BD18A42F6
:1010D800154667D9B2FA82F24AB1C2F1200701FA7D
:1010E80002F320FA07F7954047EA030C94404FEAC9
:1010F800154EBCFBFEF71FFA85F80EFB17C307FB5E
:1011080008F9210C41EA0343994509D9EB1807F17D
:10111800FF3180F01C81994540F21981023F2B4430
:10112800A3EB0903B3FBFEF00EFB103300FB08F141
:10113800A4B244EA0344A14209D92C1900F1FF33AF
:1011480080F00781A14240F2048102382C4440EA31
:1011580007400027641A1EB10023D440C6E90043A3
:101168003946BDE8F0878B4209D9002E00F0EC80A3
:101178000027C6E9000138463946BDE8F087B3FACA
:1011880083F7002F48D18B4202D3824200F2FB80C2
:10119800841A61EB030301209C46002EE0D0C6E9C7
:1011A800004CDDE702B9FFDEB2FA82F2002A40F015
:1011B8008F800127491B4FEA15481FFA85F9B1FBB3
:1011C800F8FE08FB1E1109FB0EF04FEA144C4CEA1E
:1011D8000143984207D9EB180EF1FF3102D2984229
:1011E80000F2CD808E461B1AB3FBF8F008FB1033D3
:1011F80009FB00F9A4B244EA0344A14507D92C1914
:1012080000F1FF3302D2A14500F2B6801846A4EBE4
:10121800090440EA0E409EE7C7F12005BB4022FAC8
:1012280005FC4CEA030C21FA05F44FEA1C4EB4FB0A
:10123800FEF91FFA8CF80EFB194420FA05F3B940A1
:1012480009FB08FA19430B0C43EA0444A24502FAC5
:1012580007F200FA07F30BD91CEB040409F1FF307D
:1012680080F08880A24540F28580A9F10209644493
:10127800A4EB0A04B4FBFEF00EFB104400FB08FAD2
:1012880089B241EA0444A24508D91CEB040400F1E0
:10129800FF316BD2A24569D90238644440EA09405B
:1012A800A0FB0289A4EB0A044C454146CE4654D320
:1012B80051D0002E69D05A1A64EB0E0404FA05F5D1
:1012C80022FA07F3FC401D43C6E90054002747E70C
:1012D8009540C2F1200321FA03F04FEA1548B0FB0C
:1012E800F8F71FFA85F908FB170024FA03F3914071
:1012F80007FB09FC0B43190C41EA00418C4504FA31
:1013080002F407D9691807F1FF3031D28C452FD97B
:10131800023F2944A1EB0C01B1FBF8F008FB101CBB
:1013280000FB09FE99B241EA0C418E4507D96918BC
:1013380000F1FF3318D28E4516D902382944A1EBA3
:101348000E0140EA07473AE73746304608E70F46B6
:10135800E6E61846FBE64345ABD2B8EB020169EB7B
:101368000C0201389646A4E71846E8E7084695E7D0
:101378000746CFE781467BE702382C4447E7AEF1C2
:10138800020E2B442FE7384607E73746E8E600BF4A
:10139800704700BF002103E00B4B5B5843500431FA
:1013A8000A480B4B42189A42F6D30A4A02E0002335
:1013B80042F8043B084B9A42F9D302F0A7FB07F026
:1013C80067F800F051F870473CD50008000000208D
:1013D800B00B0020B00B002058380020FEE70000BA
:1013E80038B50488054604B3282C04D1194805F0FB
:1013F800F3F820B938BD002303202B8038BD002026
:1014080002F07AF90346144C01461448236007F0A9
:10141800ADF821680F4805F0D5F828230D482B8032
:1014280005F0DAF80028E5D0E9E70D4801F0EEFE0E
:1014380042F2107004F088FE0A4807F0F9F802F04A
:1014480027F902F02DF9204602F056F9024B014621
:101458001860DFE7CC0B0020DC0B002078CD0008FB
:101468000000002068CD0008F0B587B000F0CEF885
:1014780000F020F900F04CF900F0A2F804F03EFE6C
:1014880005F0E8FA0F2005F0EFFA03F009FD4FF434
:101498007A7004F059FE0F2005F0F6FA05F01EFAEE
:1014A80004F05CFE00F0FAF905F07EF900214048EE
:1014B80005F056F904F068FF04F0C6FF05F018FDC2
:1014C80000F020FC044600F023FCE2B2C4F307233A
:1014D8008DF804208DF80530BDF80470354E61BADA
:1014E800250C8DF80C00240E8DF808208DF8093095
:1014F800020A030C000E8DF80B408DF80D208DF8B4
:101508000E30378089B28DF80A508DF80F000DF132
:101518000F030DF10E020DF1170401E012F8010995
:1015280003F8010FA342F9D1234D0320EC6AA04729
:101538006B6B082204A90B2098474AF6CD3102208C
:10154800A04705F075FA0F2005F09EFA642004F014
:10155800FBFD012005F08EFA642004F0F5FD022061
:1015680005F088FA642004F0EFFD042005F082FA03
:10157800642004F0E9FD082005F07CFA642004F0FA
:10158800E3FD0F2005F076FA642004F0DDFD0F205E
:1015980005F07AFA642004F0D7FD084804F09EFEAE
:1015A80004F0EAFD05F01AF904F0EEFDFAE700BFD1
:1015B800A40100202C38002064D0000860CD000869
:1015C80008B501214FF0C05002F058FD012002F08B
:1015D80073FE02F02FFE4FF4407002F0BDFC0120B4
:1015E80002F0C2FC02F0FEFD02F0F4FD012102202F
:1015F80002F0B4FD02F0EEFD034802F0C5FDBDE8BF
:10160800084002F0E7BD00BF366E010000B587B0A4
:1016180002F0D6FB4FF4803002F0FAFB02F014FC23
:1016280028B901A802F0A6FC07B05DF804FB102059
:1016380002F014FE022002F007FE002002F064FC13
:10164800002002F075FC4FF4806002F067FC4FF454
:10165800004002F077FC302002F02AFC4FF4C06012
:1016680002F030FC012002F037FC3B2002F018FDAC
:101678000028FAD002214FF4803002F00DFC4FF41C
:1016880080304FF4E01102F0F7FB012002F0FEFB7E
:10169800392002F005FD0028FAD0022002F022FCD1
:1016A80002F02AFC0828FBD101A802F063FC07B06D
:1016B8005DF804FB00B5012183B07D2002F0D2FC67
:1016C8004FF6FF72002301A90C48ADF804208DF8ED
:1016D800073002F0EFFA01A9094802F0EBFA01A974
:1016E800084802F0E7FA01A9074802F0E3FA01A95D
:1016F800064802F0DFFA03B05DF804FB0008014079
:10170800000C014000100140001401400018014085
:101718004FF4407002F098BA0D4B1A6802B1704746
:10172800012030B503224FF47074102583B018607F
:1017380001A908488DF80620ADF804408DF8075037
:1017480002F0B8FA2146034802F01AFB03B030BD94
:10175800E40B00200010014010B50446134B144858
:101768004FF470711C7002F00BFBE00718D4A1074E
:1017780011D4620709D4230700D410BD4FF40071B7
:10178800BDE810400A4802F0F9BA4FF480710848E1
:1017980002F0F4FAEFE78021054802F0EFFAE8E7F3
:1017A8004021034802F0EAFAE1E700BFE00B00201D
:1017B800001001402DE9F041074690460A1C2348D5
:1017C80018BF01224FF4006102F0DCFA4FF4805197
:1017D8001E4802F0D5FA67B308EB07061C4C013E19
:1017E80008F1FF3515F8011F204602F0B5FD01216B
:1017F800204602F0C1FD0028F9D0204602F0AEFDD7
:10180800B542EFD14FF40061104802F0B9FA4FF435
:1018180080510E4802F0B2FA012F01D0BDE8F081E4
:1018280098F800309B07F9D0BDE8F041022004F099
:101838008BBC4FF40061054802F0A2FABDE8F04104
:101848004FF48051014802F099BA00BF000C0140E2
:1018580000380040022310B582B002AC04F8013D04
:10186800224600210120FFF7A5FF01232246184642
:1018780000218DF80730FFF79DFF02B010BD00BFB3
:1018880010B50446FFF7E6FF204606F0FFFE2246A5
:10189800BDE810400121FFF78DBF00BF2DE9F043DF
:1018A800294A8BB002AB07CA03C305A81A7002F015
:1018B8003BFD30234FF082744FF4003007224FF481
:1018C8008058102703264FF44065DFF88890089366
:1018D8001E4B05A9059406901D4C48460793ADF884
:1018E800242004F099FC4846002102F039FD2046E6
:1018F80001A9ADF804808DF807708DF8066002F034
:10190800D9F94146204602F039FA01A920468DF856
:1019180007708DF80660ADF8045002F0CBF929463F
:10192800204602F02DFA0A2004F00EFC02AA00213B
:101938000920FFF73FFF0A2004F006FCFFF78AFFA3
:101948000BB0BDE8F08300BF54CD000801000002D1
:10195800000C01400038004010B5094CA37A4BB187
:10196800084A136823F00603136002F0CFF82046F4
:1019780003F07AFFBDE810404FF4802002F0E8BB86
:10198800FC30002010ED00E0014803F07DBF00BFEF
:10199800FC30002070B5094C0646256855B102F0A8
:1019A8004FF92368334483428CBF4FF0FF352360DF
:1019B800284670BD024B1D462360F0E7E80B002067
:1019C8005838002010B508461146144603F040FA6E
:1019D80000280CBF20464FF0FF3010BD0020704794
:1019E8000020704700207047002070470120704792
:1019F80038B5074D074C2B6898472021204602F040
:101A0800B7F90128F7D0BDE83840202002F0A0BB84
:101A1800EC0B0020000C0140054B1B6803F0200371
:101A280058B223B14FF40002024BC3F8802070472C
:101A38000004014000E100E018B14FF40002014B3E
:101A48001A60704700E100E00A4B1A6892060ED54A
:101A58001B689B0604D54FF40002074BC3F880208F
:101A68004FF400020549044B08601A607047034BA5
:101A7800186070470004014000E100E0EC0B002012
:101A88002DE9F843254C814627680E4617F02007B4
:101A980090461D4604D04FF40002214BC3F8802025
:101AA8001021204802F06CF9B9F1000F11D01E4C3A
:101AB800B14416F8011B204602F04EFC01212046D5
:101AC80002F05AFC0028F9D0204602F047FC4E45A7
:101AD800EFD1B8F1000F15D005EB0806124C013E06
:101AE800013DFF21204602F037FC0121204602F08B
:101AF80043FC0028F9D0204602F030FC05F8010F1D
:101B0800AE42EED11021074802F038F91FB14FF468
:101B18000002034B1A60BDE8F88300BF00040140CF
:101B280000E100E000080140003001402DE9F843E1
:101B3800244C814627680E4617F0200790461D461C
:101B480004D04FF40002204BC3F8802010211F4816
:101B580002F016F9B9F1000F11D01D4CB14416F876
:101B6800011B204602F0F8FB0121204602F004FC8C
:101B78000028F9D0204602F0F1FB4E45EFD1B8F12C
:101B8800000F14D005EB0806114C013E013D15F875
:101B9800011F204602F0E0FB0121204602F0ECFB89
:101BA8000028F9D0204602F0D9FBAE42EFD110212F
:101BB800064802F0E3F81FB14FF40002024B1A6026
:101BC800BDE8F8830004014000E100E0000801409E
:101BD80000300140F0B50124002703260F4D83B0E3
:101BE800284601A9ADF804408DF807708DF8066005
:101BF80002F060F82146284602F0C2F801A92846FA
:101C08008DF80770ADF804408DF8066002F052F8C0
:101C1800022004F099FA03B0F0BD00BF00080140AB
:101C28004FF082712DE9F0414FF000720723002533
:101C3800202610274FF0030801248AB005912D486B
:101C480005A9CDE90652ADF82430089604F0E4FA67
:101C58002946284802F084FB01A92748ADF80470FA
:101C68008DF807708DF8068002F024F8394622486E
:101C780002F084F801A920488DF807508DF80680F5
:101C8800ADF8044002F016F82823082701A91B48DC
:101C98008DF80730ADF8046002F00CF805212046F5
:101CA80002F076F803A803968DF810508DF81240CC
:101CB8008DF8117002F00EFA40F617730DEB07005D
:101CC800ADF808308DF80A508DF80B4001F0C6FFCA
:101CD800FFF780FF204600F0ADFF013006D03946FF
:101CE800044804F0F3FA0AB0BDE8F0810448FFF7AD
:101CF800C7FDFEE70030014000080140000C01402C
:101D080098CD0008014B1B68186870471C0000201C
:101D1800014B1B68586870471C000020152300B54C
:101D280083B002A901F8043D052203460120FFF70C
:101D3800A7FE03B05DF804FB10B5C0B282B0D9B1FC
:101D480060F03F007F298DF80400CCB20CD9C90996
:101D58008DF80610032064F07F0401A98DF8054072
:101D6800FFF7E4FE02B010BD022001A98DF805407E
:101D7800FFF7DCFE02B010BD60F07F008DF80400B4
:101D880001A90120FFF7D2FE02B010BD08B5131853
:101D9800B3F5806F07DC0B461146821E0920FFF75A
:101DA800CBFF002008BD4FF0FF3008BD30B504461A
:101DB80083B0050A01AB022241F604012E208DF8FA
:101DC80004408DF80550FFF7B7FF03B030BD00BFE2
:101DD80030B5044683B0050A01AB02220021182061
:101DE8008DF804408DF80550FFF7A6FF03B030BD0D
:101DF80030B50E4C83B0246801ABE46844EAC232C3
:101E0800104340EA8151080A0D0C0C0E8DF804109D
:101E18008DF805000422002108208DF806508DF861
:101E28000740FFF789FF03B030BD00BF1C0000204A
:101E380010B5C0B282B0D9B140F040007F298DF80A
:101E48000400CCB20CD9C9098DF80610032064F03F
:101E58007F0401A98DF80540FFF712FE02B010BDFE
:101E6800022001A98DF80540FFF70AFE02B010BD57
:101E78008DF8040001A90120FFF702FE02B010BD91
:101E880010B4144603460A461120214610BCFFF739
:101E9800CFBF00BF002100B583B0084601AB0422C4
:101EA800FFF7C6FF00200DF107030DF1030113F83A
:101EB80001298B4202EB0020F9D103B05DF804FB45
:101EC800042270B582B00DEB0203044600211046CF
:101ED800FFF7AEFF00220DF107030DF1030013F821
:101EE8000119984201EB0222F9D1ECB1104B04F42C
:101EF800FF7141F001011340194304220D480E0AF5
:101F080004680D0C61610DEB02038DF804100C0ED2
:101F1800104600218DF805608DF806508DF80740B1
:101F2800FFF70AFF02B070BD03491140E5E700BFA3
:101F380001FE47F01C000020FEFF47F0022230B5EA
:101F4800044683B0050A114601AB03208DF804400E
:101F58008DF80550FFF7F0FE03B030BD30B50446EC
:101F680083B0050A01AB0222002103208DF804404A
:101F78008DF80550FFF7E0FE03B030BD812300B5B2
:101F880083B002A901F8043D082203460120FFF7A7
:101F9800CDFD03B05DF804FB012200B583B002A9B2
:101FA80001F8042D034610460822FFF769FD03B027
:101FB8005DF804FB30B5044683B0C0F3072501ABD8
:101FC800022204212D208DF804408DF80550FFF7DA
:101FD800B3FE0323002402AD05F8053D2B4601227C
:101FE80006212D20FFF7A8FE02AB03F8064D0122BB
:101FF80006212D20FFF7A0FE01AB2D2004220A2187
:10200800FFF716FF20460DF1070313F80129AB422D
:1020180002EB0020F9D103B030BD00BF002200B5AB
:1020280083B002AB03F8012D022101222C20FFF717
:1020380083FE022102AB03F8021D01222C20FFF7C8
:102048007BFE03B05DF804FB6D2210B5044682B038
:1020580002AB03F8052D40F6060101222E20FFF7FA
:102068006BFE64B941F2076202AB23F8042D41F616
:10207800060102222E20FFF75FFE02B010BD40F2DB
:102088000762F1E72DE9F04307784279042F1CBF76
:10209800A7F10709B9FA89F9D04BD14E457833F839
:1020A80012800446C279306805F1FF3585B0EDB27B
:1020B80014BF4FEA59194FF001094369002A40F04B
:1020C800548143F480034FEAD808042294F808C0E6
:1020D80023F440314FEA0C4303F440330B43190C0B
:1020E80080F808C043614FEA132E4FEA136C10467C
:1020F8008DF80C308DF80E1003AB00218DF80DE033
:102108008DF80FC0FFF718FE4FEA182C03AB022218
:1021180042F604012E208DF80DC08DF80C80FFF7D3
:102128000BFE2846FFF790FFAE4BAF4A13F8078027
:1021380003AB52F828100422080C4FEA112E4FEA7C
:10214800116C8DF80C108DF80E0007212B208DF8DE
:102158000DE08DF80FC0FFF7EFFDA44904AB11F8AF
:102168000800012203F8080D0B212B20FFF7E4FDDE
:102178009F4904AB11F80900012203F8090D0B214E
:102188002820FFF7D9FD9B4A03AB52F828000C2101
:102198004FEA104E4FEA106C04224FEA10288DF8CF
:1021A8000C0028208DF80EE08DF80FC08DF80D80FA
:1021B800FFF7C2FD0222E079A3798F4903EB4003C0
:1021C80031F813C027204FEA1C2E114603AB8DF8B7
:1021D8000CC08DF80DE0FFF7AFFD884A03AB32F86D
:1021E80015C004214FEA1C2E022227208DF80CC0AE
:1021F8008DF80DE0FFF7A0FDE379002B00F0D38008
:10220800A378042B00F0B4804FF0200C03AB02221B
:1022180006212720ADF80CC0FFF78EFD282204AB5D
:1022280003F8062D262101222720FFF785FDE378F4
:10223800734A03EB850352F8232003AB110A100CF1
:102248004FEA126C8DF80C208DF80D108DF80E00E9
:102258000422082127208DF80FC0FFF76DFD638940
:10226800002B00F09980D8B24FEA132CDFF8988140
:1022780003AB022220218DF80C0027208DF80DC019
:10228800FFF75AFDD8F8002003AB110A100C4FEAEB
:10229800126C8DF80C208DF80D1004220C218DF88D
:1022A8000E0008EB450523208DF80FC0FFF744FD0D
:1022B800AD8804214FEA152C03AB022223208DF8A8
:1022C8000C508DF80DC0FFF737FDA179002975D1A5
:1022D80008460025637994F801C007F00F0242EA26
:1022E800C3623F0123794FEA8C4CFFB23A439B0506
:1022F8000CF440273A4303F0F8631A4302430A43B5
:10230800100C170E294603AB8DF80C208DF80E0023
:1023180004221F208DF80F708DF80D50FFF70CFD6B
:102328006078A278E37902435B0343EA02433168A9
:102338001C0CCB608DF80E4042241E0A294603ABC4
:10234800042208208DF80C508DF80F508DF80D6080
:10235800FFF7F2FC294603AB01220D208DF80C4053
:10236800FFF7EAFC05B0BDE8F08323F48003ACE690
:102378004FF0100803AB022206212720ADF80C808D
:10238800FFF7DAFC0DEB080303F8078D012226217D
:102398002720FFF7D1FC4AE741F241034FF0100C28
:1023A8004120638162E74FF0640C03AB02220621EF
:1023B8002720ADF80CC0FFF7BFFC38E7E1791148DA
:1023C80004AB405C0122002103F8050D2120FFF732
:1023D800B3FC4FF400314FF440107AE7FCCD00080D
:1023E8001C000020ACCD0008DCCD0008F4CD0008AE
:1023F80030CE000840CE000834CE0008D4CD000806
:10240800B4CD0008D8CD0008A4CD000830B583B0FD
:1024180001AB0422044600211A20FFF709FD00231E
:102428000DF107020DF1030012F80119904201EBBA
:102438000323F9D11B0D1B05C4F313011943080A23
:102448000D0C0C0E8DF804108DF8050001AB04225C
:1024580000211A208DF806508DF80740FFF76CFC14
:1024680003B030BD10B4044C2468C4E90A01C4E9BF
:102478000C2310BC704700BF1C000020F0B510F002
:10248800010483B056D001AD2B4604220646002134
:102498002620FFF7CDFC00230DF107020DF1030400
:1024A80012F80119944201EB0323F9D123F4705374
:1024B80043F4A052110A100C170E2B468DF8042075
:1024C8008DF80510042200218DF8060026208DF8CD
:1024D8000770FFF731FC2B46042200213620FFF756
:1024E800A7FC00220DF1070313F801199C4201EB28
:1024F8000222F9D142F40402110A100C140E2B46E0
:102508008DF804208DF805108DF8060004220021AE
:1025180036208DF80740FFF70FFCB30731D44FF48E
:1025280088742B460422282136200194FFF704FCE6
:1025380003B0F0BD01AD2B46214626200422FFF74B
:1025480077FC21460DF107030DF1030013F801296B
:10255800984202EB0121F9D121F47051080A2B4667
:102568000C0E0D0C8DF804108DF8050004220021C6
:1025780026208DF806508DF80740FFF7DDFB03B0E5
:10258800F0BD044C2B460422282136200194FFF785
:10259800D3FBC4E710010F0030B50446362583B0DD
:1025A8006B4601A9022201208DF80450FFF768FA52
:1025B8000E2C12D8DFE804F02C0835111111113E49
:1025C8004D11115A6168270000229DF801308DF8DD
:1025D800002023F001038DF80130B62401228DF884
:1025E80004404FF4FB746B46104601A9FFF79EFAAE
:1025F80001A90DF1010301220220ADF80440FFF703
:1026080095FA03B030BD40F20133ADF80030E4E78D
:102618009DF8003023F0030343F001038DF80030E8
:10262800DBE79DF8003023F0030343F002038DF845
:102638000030D2E79DF800309DF8012023F04C03CC
:1026480043F0480362F07F028DF800308DF80120D6
:10265800C3E79DF800209DF8013022F04C0203F0FA
:102668007F038DF800208DF80130B6E79DF8013022
:1026780043F002038DF80130AFE79DF8013023F0F5
:1026880002038DF80130A8E79DF8003023F03003ED
:1026980043F020038DF800309FE700BF00B50E20FF
:1026A80083B0FFF779FF4FF4004202AB23F8042D03
:1026B800062102222D20FFF73FFB012003F044FDF5
:1026C8000120FFF769FF03B05DF804FB00B50020A7
:1026D80083B0FFF761FF002202AB23F8042D042129
:1026E80002223620FFF728FB03B05DF804FB00BF89
:1026F80070B582B0060A050C040E8DF8040001AB13
:10270800042201210A208DF805608DF806508DF805
:102718000740FFF711FB02B070BD00BF30B510F0E5
:10272800020283B004462BD114F0010402AB1BD083
:1027380042F0060203F8062D002101220D20FFF7C2
:10274800FBFA0F2001AB02220321FFF771FB9DF872
:1027580005009DF8044004EB002414F4816408BFCC
:1027680020461CD103B030BD42F0020203F8042D0C
:10277800214601220D20FFF7DFFA204603B030BDC5
:10278800802502AB03F8075D012200210D20FFF729
:10279800D3FA01210A4B2A461B689976C4E74022DE
:1027A80002AB03F8052D0D2001220021FFF7C4FA22
:1027B8000022034B4FF0FF301B689A76D2E700BF28
:1027C8001C00002010B582B00DF10703012203217F
:1027D8000F20FFF72DFB9DF8073083EA43031B0604
:1027E80009D501240DF10703224603210D208DF898
:1027F8000740FFF7A1FA02B010BD00BFF0B50024F2
:1028080083B001AB042221460E20FFF711FB0DF126
:1028180003060DF1070313F801299E4202EB042475
:10282800F9D1FFF7F9F800250746294601AB04223C
:102838000E200195FFF780FA4FF0400C33462946E9
:1028480001220D20144E8DF803C0FFF775FA2946B2
:1028580001AB04220F200196FFF76EFA260EFFF750
:10286800B1FF01AB4FEA142E4FEA144C294604225B
:102878000E208DF805E08DF806C08DF804408DF81F
:102888000760FFF759FA3846FFF7D6F8034B1B687D
:102898009D7603B0F0BD00BFF8FF27241C00002080
:1028A80070B5430782B0054628D515F0010418D045
:1028B8004FF4407302AE26F8043D3346022200214D
:1028C8000D20FFF739FA3346012203210F20FFF7C5
:1028D800AFFA9DF8044014F0080412D1204602B063
:1028E80070BD4FF4807202AB23F8042D21460222FA
:1028F8000D20FFF721FA204602B070BDFFF762FFF6
:10290800D3E7FFF77BFF15F0020102D04FF0FF3449
:10291800E4E74FF48074334602220D20ADF80440FA
:102928004FF0FF34FFF708FAD8E700BF70B5054647
:1029380082B001AB012203210420FFF779FA9DF848
:1029480004408DB9174B24F010041868012241691E
:1029580001AB21F080514161032104208DF804402E
:10296800FFF7EAF902B070BD01AB2E0A022200217E
:102978000C208DF804508DF80560FFF7DDF9094A41
:1029880002AB116844F010044A6903F8054D42F09F
:1029980080524A61042001220321FFF7CDF902B0D9
:1029A80070BD00BF1C00002070B582B00E46044602
:1029B800FFF732F801AB0021054604220E20FFF78D
:1029C80037FA00200DF107030DF1030113F801296F
:1029D800994202EB0020F9D1B6B12043010A01ABBC
:1029E800060C040E8DF8040004228DF805100E2044
:1029F80000218DF806608DF80740FFF79DF92846FD
:102A0800FFF71AF802B070BD20EA0400E6E700BF3D
:102A1800E02200B583B002AB03F8012D03210122A7
:102A28003620FFF789F9F02202AB03F8022D0321C3
:102A380001223620FFF780F903B05DF804FB00BFE0
:102A4800F0B5002483B05F4D01AB042221460F206E
:102A58002F680DF10306FFF7EBF90DF1070313F8E3
:102A68000129B34202EB0424F9D1FC61670441D582
:102A78004FF4DE4701AB042200210F200197FFF736
:102A88005BF900232A68194682F82430102001AB2C
:102A98000222FFF7CDF92B689DF805009DF8042068
:102AA800197A02EB002292B2002967D0C2F3090119
:102AB8001004198405D593F8242042F0010283F804
:102AC8002420112701A90120223302228DF8047045
:102AD800FEF7D6FF2107286804D590F8223013F0B6
:102AE800200758D0C36A13B11C3098472868437C24
:102AF800002B46D1220611D5F82601AB0F2004225F
:102B080000210196FFF718F92307286802D5837E6C
:102B1800002B51D1836A0BB11C30984714F4081F5D
:102B280014D04FF400360F20002101AB0422019687
:102B3800FFF702F900222B689A76FFF75FFEFFF78E
:102B480067FF2868036B0BB11C3098471E4E344250
:102B580012D00F20002101AB04220196FFF7ECF8F8
:102B680000222B689A76FFF749FEFFF751FF286885
:102B7800436B0BB11C30984703B0F0BD02F07F01E6
:102B880096E7012733463A4603210D208DF8037056
:102B9800FFF7D2F8AEE74FF0080C01AB0F20042284
:102BA8003946CDF804C0FFF7C7F82868C3698776A7
:102BB80023F00803C36195E7FFF720FEFFF728FF1E
:102BC8002868A7E71C0000200090052430B50024E1
:102BD80083B002ADFFF77AFD25F8044D2B46214658
:102BE80002222C20FFF7A8F82B46012206212C20D0
:102BF8008DF80440FFF7A0F8FFF710FA02AB03F8CE
:102C0800054D012203213620FFF796F8012003F035
:102C18009BFAF02202AB03F8062D0321012236208D
:102C2800FFF78AF8024B1B689C7603B030BD00BFE3
:102C38001C000020F0B50024504E83B033680546D0
:102C48005C749C761C83C3E90A44C3E90C44FFF70F
:102C580021F94B4B984240F08E800427FFF7B6FFCE
:102C68002046FFF799FC02AB214603F8087D0122B4
:102C78002420FFF761F81E20FFF79CF93368C0F3A2
:102C8800072204465A723846FFF794F910F0FF0FEE
:102C980062D137680620FFF78DF93860072037685A
:102CA800FFF788F914F01F047860336834D01C7477
:102CB80044F0600402AB03F8064D01220E212B20DC
:102CC800FFF73AF8EB072BD5FFF7E8FC326801AFBE
:102CD800138B43F400631383002402AD0120FFF734
:102CE8005BFC05F8054D2B4601220A212C20FFF735
:102CF80023F804223B46214610463668FFF798F829
:102D08000DF1070313F80129AB4202EB0424F9D1B2
:102D18000020746103B0F0BD102270241A74C9E752
:102D280001AF3B46022205213620FFF781F84FF616
:102D3800FF509DF805109DF804203B4602EB012248
:102D48001040040A8DF804000222052136208DF86F
:102D58000540FEF7F1FFBFE7022202AB03F8072D9B
:102D6800122101222D20FEF7E7FF37683B8B43F441
:102D780080533B838EE74FF0FF30CBE71C000020E9
:102D88003001CADE0000000038B504460846154682
:102D9800FDF7AAFB0022584BFDF7FEFBFDF796FE58
:102DA800FF28A8BFFF20012D40D0042C1FD0072CDE
:102DB8001DD01A225149524B095D02FB01F2995C60
:102DC8001344884277DD002200E0224613F8011FF1
:102DD800541C8842F9DCA2F11000FDF7C9FFFDF789
:102DE80083FB3BA3D3E90023FDF7D6FB38BD454A57
:102DF800454B125DC2EB0211C2EB8102995C134490
:102E0800884254DD002200E0224613F8011F541CBA
:102E18008842F9DCA2F11D00FDF7AAFFFDF764FB6B
:102E28002BA3D3E90023FDF7B7FB38BD042C20D032
:102E3800072C1ED0314A354B125D02EBC20102EB62
:102E48008102995C134481423DDA002200E0224667
:102E580013F8011F541C8142F9DBA2F11600FDF79B
:102E680087FFFDF741FB1AA3D3E90023FDF794FB85
:102E780038BD244A264B125D02EB02129200995C7F
:102E880088421CDD1344002200E0224613F8011F8B
:102E9800541C8142F9DBA2F11B00FDF769FFFDF725
:102EA80023FB0BA3D3E90023FDF776FB38BD0AA16A
:102EB800D1E9000138BD0AA1D1E9000138BD0AA154
:102EC800D1E9000138BD0AA1D1E9000138BD00BF30
:102ED8007B14AE47E17A843F333333333333D3BF84
:102EE800C3F5285C8FC2C5BFEC51B81E85EBD1BFB6
:102EF800713D0AD7A370CDBF0000104058CE00081E
:102F080084CF000860CE0008ECCF000868CE000827
:102F1800FCCE0008014B1878704700BF390C002020
:102F2800014B1878704700BF2C0C00200020704718
:102F38000120704708B50020FFF7F8FC0020FFF7D4
:102F4800AFFC002008BD00BF08B500F023FB00203F
:102F5800FFF7ECFCBDE808400020FFF7A1BC00BF6C
:102F680008B500F017FB0020FFF7E0FC0020FFF792
:102F780097FCBDE80840012003F090BD038870B5B8
:102F880004469BB140F20E22934203D1822912D00B
:102F9800012070BD00230320238070BD0026304629
:102FA8002E70FFF7C3FC3046FFF77AFC40F20E2381
:102FB8000120238070BD144D2E78F6B1134E33884E
:102FC800802BEBD803F0FEFE03F0B0FE2B7831889F
:102FD80063B9084603F0A4FE0020FFF7A7FC002011
:102FE800FFF75EFC0A4B1B699847DFE70022FEF7F4
:102FF80047FF002331882B70EBE73046FFF796FC3C
:103008003046FFF74DFCD1E72C0C00202A0C00209D
:10301800D0D100080B2801D001207047082A06D11A
:1030280029B108B50846FEF7A9FF002008BD02200F
:10303800704700BF0B2801D001207047082A06D12D
:1030480029B108B50846FEF7A7FF002008BD0220F1
:10305800704700BF032810B514D0042808D00228F0
:1030680001D0012010BD88B2FEF768FF002010BD16
:1030780011F001040BD12046FEF722FF064B204633
:103088001C7010BD88B2FEF769FF002010BD3E20FD
:10309800FEF716FF002010BD280C002008B500F030
:1030A80071FA20B9034B187880F0010008BD0020A0
:1030B80008BD00BF390C002070B5FEF7ADFC064610
:1030C80000F060FA90B90446104DFFF797FB2046D0
:1030D800FFF79CF902202C70FFF720FB04463046CE
:1030E800FEF7AAFC44B10124204670BD01243046F5
:1030F800FEF7A2FC204670BD03F046F82B78002BA3
:10310800F2D12B78002BFCD0204670BD380C002063
:1031180070B506460D4600F035FA08B1012070BDBD
:1031280004460235EDB2314622462846FEF72EFE09
:10313800284622462146FEF75BFE204670BD00BFAA
:1031480038B504460D48FEF7E9FD01220C49A3886D
:103158000C4D0D480978023B2B80027011B1236891
:103168001B0707D40022094B09481A70BDE83840EC
:1031780003F0A6BB054B1A7038BD00BF300C002009
:10318800280C00202A0C00202C0C0020390C0020D0
:103198002000002038B5064C23780BB9184638BDF6
:1031A80000220D46FEF76CFE00232846237038BD2A
:1031B8002C0C00200120054B05491A78087002B92B
:1031C8007047002203481A7003F07ABB390C0020BC
:1031D800380C002020000020F8B507460E4600F005
:1031E800D1F908B10120F8BD0446B51CEDB2394645
:1031F80022462846FEF7CAFD284622462146FEF703
:10320800F7FD3046BDE8F840FFF756BF38B504462D
:10321800FEF702FC054600F0BDF9FFF7EFFA284675
:10322800FEF70AFC2046FEF72DFF204600F0C2F903
:103238000020FFF77BFB0020FFF732FB012038BDA1
:1032480010B5002484B0FEF7EBFC0120FFF716F957
:10325800164B3E201C70FEF733FE1548FEF7F4FBB4
:10326800144B154A15491648FFF7FCF80121154873
:10327800FFF79AFB00F054F98021134A134B01A879
:10328800ADF80E10CDE901238DF80C40FFF7BEFF15
:103298002046FFF74BFB2046FFF702FB21460C4870
:1032A80003F05EFA204604B010BD00BF280C0020D1
:1032B800492A0008512F0008692F000849310008E1
:1032C800BD31000880D02324040114000707000240
:1032D800200000200000000040F2BB222DE9F04F42
:1032E800038885B0934204462AD040F2DD229342F7
:1032F80011D02BB100230320238005B0BDE8F08F47
:10330800754D2B78002B3CD040F2BB230120238045
:1033180005B0BDE8F08F714803F05EF990B1704DCB
:10332800704E6D4B704A1978306803F0A9FA002383
:10333800336000232B7040F2BB2301202380E7E792
:10334800822903D0012005B0BDE8F08F644D2B78A9
:10335800DA1F012A54D95A1F012A16D9614E326838
:10336800002AE6D0604A12680AB1062BD9D15F4B11
:103378005A48996903F026F940F2DD230120238099
:10338800BBE703F0E5F92870BEE7594B1B78002B23
:103398003ED158485849594B594A0968126800683B
:1033A8001B68401A9B1AC01AFDF78CF80022554B6F
:1033B800FDF7F2F844A3D3E90023FDF7EDF844A3A1
:1033C800D3E90023FDF7E8F889468046464F454E85
:1033D800C7E90489FDF7C2FB012201460420FFF773
:1033E800D3FC02460B4640464946FCF71DFF012226
:1033F8003368C7E902013A60002B9AD02B78B4E70A
:103408000021384B384A1B681160002BAFD190E778
:103418003D4A3E4BD2F800901868A9EB0000FDF732
:1034280041F83B4A3B4BD2F80080064618680F46E5
:10343800A0EB0800FDF736F8374B824618688B4634
:10344800A0EB0900FDF72EF8344BCDE90001186810
:10345800A8EB0000FDF726F85246CDE902015B46CD
:1034680030463946FDF798F8DDE90223804689465B
:10347800DDE90001FDF790F802460B464046494653
:10348800FCF7D2FE5246804689465B4630463946AE
:10349800FCF7CCFEDDE90023FCF7C8FEDDE90223DA
:1034A800FCF7C4FE02460B4640464946FDF79EF926
:1034B800FDF728FDFDF742F803A3D3E90023FDF744
:1034C8006BF87CE7AFF30080FA48CE3B1835B13D86
:1034D8000000001319DDB141582000203C0C0020E9
:1034E800890C00205C200020700C0020500C00206B
:1034F800880C0020642000203C2000204C20002064
:10350800442000200000E03F5020002048200020F8
:103518006820002054200020602000204020002047
:1035280038B5114D114C0FCD0FC495E80700104B5D
:10353800104D1B6884E8070044F247002B60FEF733
:1035480035FC288848F64105FEF742FCCD24AB221D
:10355800094B00211D8009481A71DC7003F000F93D
:103568000022074B1A7038BDCCD00008500C002040
:10357800ACD000084C0C00208C0C0020300000203F
:10358800890C0020024B1878003018BF01207047C2
:10359800890C0020054A1378013B032B00D970479A
:1035A80008230348137003F08BB900BF890C00206F
:1035B8003000002070B4C3790646C3B1022B12D183
:1035C800154D164C0FCD0FC495E80700337884E8E5
:1035D8000700042B0DD0052B17D0022B0FD070BC81
:1035E8006FF0010070474FF0FF3070BC70470C4D12
:1035F800E7E70C4B0C4A002070BC1A607047094B77
:103608000A4A002070BC1A607047064B084A00201E
:1036180070BC1A60704700BFCCD00008500C002066
:10362800B0D000084C0C0020474047407040704024
:10363800344034400346052200210620FEF7F8BB3B
:1036480010B5941CB4F5806F00D310BD002220463D
:10365800FEF79CFB2046BDE8104001220021FEF742
:10366800C7BB00BF38B50446FEF7D6F90546FFF7D5
:10367800C5F82068FFF73CF80020FEF7C7FE0320D6
:10368800FFF74CF8044668B2FEF7D6F9E0B238BD49
:103698000123024880F82030704700BF4000002016
:1036A80070B514230025124C46784FF48072FF2120
:1036B80004F12400236126602571C4E902552577A9
:1036C800256204F009FF23462A4604F5207183F891
:1036D800292128338B42FAD14FF480720021054802
:1036E80004F0FAFE3046BDE8704004F0A9BF00BF00
:1036F800A80E0020501200202DE9F04F89B002904A
:1037080002F01CFDDFF8C4820190D8F82030834213
:10371800C0F0B680D8F80C00019B984204D3019BF6
:10372800C01A09B0BDE8F08F04F092FF0026002708
:103738009B4B08ADA3FB0023DB08D8F8102003EB54
:10374800830365E90267A0EB4300019B053AD318A0
:1037580003442846C8F80C30FFF76CFFDDE9062360
:103768008DA1D1E90001161843EB01074FF0FF3195
:103778008C4807EA010306EA000212F5007998F876
:10378800041043F1000A884ECDE9069A4B1C37789D
:1037980003F07F0304AC95E80300C8F8089088F8A4
:1037A800043084E80300002F00F092814FF0FF0CF2
:1037B8004FF0300E00277D4A7D4DD8F8003003CAFF
:1037C800083AC5F80D00C5F8111085F815E003CAC8
:1037D8006B73C5F80500C5F8091085F805C0377082
:1037E800FFF756FF98F80420D8F8083098F81C60BE
:1037F800AA75C5F8173086B36E49731EDBB201F19E
:10380800010C00266C4A9C441AE003EB830308EB86
:10381800C30393F83C718FB193F82A71D3F82CE164
:10382800B3F8343110705770C2F802E09BB167F0FA
:103838007F075770D38008320136F6B28C450DD019
:1038480011F8010B08EB000393F82430FF2BDCD1AF
:1038580000231B7DFFDE0632EEE7574A57490298E0
:10386800521A15321539EE76FFF7EAFE2046FFF7B1
:10387800F9FED8F80C00019BC01A09B0BDE8F08F1A
:103888004FF4807200214E4804F026FE4FF48072F7
:1038980000214C4804F020FE00224B49484891463C
:1038A8001346C1E90022C1E9022208F2A73212F840
:1038B800011F09F1010429B109F1020100F80930D9
:1038C800A1460C460133B3F5807FF0D100274FF0B5
:1038D800100BBA4601263B4D04F0BAFE90FBF9F3F3
:1038E80003FB190000EB090188420DDA2B5C43B990
:1038F800CEE090FBF9F309FB1303EA5C002A00F021
:10390800C88001308842F4D1BBF1010BE4D12F4EBD
:103918002D4BDE46B0464FF0FF09354693F800B010
:1039280006F5207C02E0283565451AD095F829313E
:10393800002BF8D095F828115FB15945F3D0224BE8
:10394800581E384403E013F8012F8A42EBD0834213
:10395800F9D1414481F82490283585F801E165457D
:10396800E4D1002F57D007F1FF39174B5FFA89F9D7
:10397800994403941F4603E0B9454BD017F801BF9B
:1039880008EB0B0393F82430FF2BF5D133460022C4
:1039980023E000BFAFF30080A779A4010000000076
:1039A800CDCCCCCC00FEFFFF6C000020FCD0000882
:1039B80060130020BC0E00207C130020751300202B
:1039C800A40C0020A40D002050130020A80E0020F5
:1039D8000132102A03F12803CED093F829115FFA97
:1039E80082FC0029F4D102EB8202D40004F5947021
:1039F80008EB0B0E282240448EF824C004F06CFD1E
:103A08004FF0010208EB0403B94583F828B183F8A5
:103A18002921B3D1039C4FF480720021334888F8E0
:103A28001CA004F059FD2046FCF74CFD02460B464D
:103A380000202F49FCF7DAFEFDF790F82D490446DF
:103A4800FDF756FA00283CD01420C8F8100002F000
:103A580075FB4FF0000A00224FF0000BA0F5FA604A
:103A680096F829315BB1D6F83831984207D906F56E
:103A7800A073A6F83421C3E900ABC6F8482128365C
:103A8800AE42EDD1019B03F57A73C8F8203041E6C8
:103A98000346194ABAF1070FD25C06D80AF10101A8
:103AA800C2448AF814205FFA81FA0F2F03D813480A
:103AB800791CC255CFB2BBF1010BEE547FF40CAFA9
:103AC80025E70F492046FDF7F5F918B13220BCE784
:103AD8000C4D85E62046FCF707FD02460B46002004
:103AE8000949FCF783FEFCF7F1FFAEE7501200200E
:103AF8000000794000004842A40C00205013002028
:103B08000000A0416013002000408F4030B4002026
:103B18004FF47F05454B46491C6882B044F00104C8
:103B28001C605C681A4621405960196821F084714C
:103B380021F480311960196821F4802119605968CD
:103B480021F4FE015960196821F0A05119609D60A7
:103B5800D86200900190196841F48031196003E03F
:103B6800009BB3F5A06F09D0136803F400330193E9
:103B7800009B01330093019B002BF1D02B4B1B685A
:103B880013F4003318BF01230193019B012B06D0C6
:103B98004FF00062274B9A6002B030BC704726494C
:103BA800224B08681A4640F0100008600C68234849
:103BB80024F003040C600C6844F002040C6059689B
:103BC800596059685960596841F480615960D96AE7
:103BD8000840D862D96A41F4833141F04401D9627E
:103BE800196841F08061196013681901FCD55368A0
:103BF8000E4923F47C135360536843F4E81353606D
:103C0800136843F0807313600B689B01FCD54B6805
:103C1800064A23F003034B604B6843F002034B60F2
:103C2800536803F00C03082BFAD1B1E700100240E7
:103C38000000FFF000ED00E00020024000F0FEFF71
:103C4800EFF308800046704740F0BF60024B40F435
:103C58000030D860704700BF00ED00E0F0B40124E8
:103C68000178C37801F01F0294404E092BB90F4B1D
:103C7800203643F82640F0BC70470D4B4778DD6886
:103C88008278E8430F23C0F30220C0F10405C34043
:103C980007FA05F513402B43044A1B01DBB2114414
:103CA80081F8003342F82640F0BC704700E100E09C
:103CB80000ED00E02DE9F041CD78EB0648BF8B78A8
:103CC800098805F00F0748BF1F4311F0FF0F21D0E7
:103CD80000234FF0010C4FF00F08066802E0013393
:103CE800082B16D00CFA03F232EA0104F7D19C0033
:103CF80008FA04FE26EA0E0607FA04F4282D46EA16
:103D0800040632D0482D03F1010308BF0261082BD5
:103D1800E8D10660FF2924D908234FF0010C4FF0A1
:103D28000F08466802E00133102B19D00CFA03F48F
:103D380034EA0102F7D103F18042083A920008FA06
:103D480002FE26EA0E0607FA02F2282D46EA0206C5
:103D580009D0482D03F1010308BF0461102BE5D1F8
:103D68004660BDE8F0814461DDE74261B7E700BF26
:103D78008368194214BF0120002070470161704711
:103D8800416170470AB9416170470161704700BFDE
:103D980010B40F2401F0FC0303F1804303F58033D2
:103DA80001F003019A6889008C4022EA04029A60B3
:103DB8009A6800FA01F11143996010BC704700BF7E
:103DC80010B400204FF47F040F4B104A196841F0DB
:103DD8000101196059680A405A601A6822F0847211
:103DE80022F480321A601A6822F480221A605A6813
:103DF80022F4FE025A601A6822F0A0521A609C60EF
:103E0800D86210BC704700BF001002400000FFF0ED
:103E18000C4BB0F5803F1A6822F480321A601A6899
:103E280022F480221A6008D0B0F5802F04D11A68D5
:103E380042F4A0221A60704770471A6842F4803230
:103E48001A60704700100240002382B0094A0193AB
:103E5800136813F4003F019B03F101030193019BD5
:103E680002D1B3F5A06FF3D1024B1868C0F34040FC
:103E780002B0704700100240034A536823F47413D9
:103E8800194301435160704700100240014B18600C
:103E9800704700BF60004242044AD36A23F480336B
:103EA80023F00F0319430143D16270470010024009
:103EB800034AD36A23F0F0031843D062704700BF67
:103EC80000100240034AD36A23F470631843D06297
:103ED800704700BF00100240014B1860704700BFD8
:103EE80068004242034A536823F0030318435060B2
:103EF800704700BF00100240024B586800F00C00E9
:103F0800704700BF00100240034A536823F0F003D3
:103F180018435060704700BF00100240034A5368BE
:103F280023F4E06318435060704700BF001002405C
:103F3800034A536823F4605343EAC0005060704753
:103F480000100240034A536823F44043184350606A
:103F5800704700BF00100240024A136A18431062FB
:103F6800704700BF00100240014B1860704700BF47
:103F78003C0442422F4A30B4536803F00C03042B2C
:103F88003CD0082B20D02C4B03602A4A2B4C51687C
:103F98002B4DC1F30311615CCB4043605168C1F301
:103FA8000221615C23FA01F181605168C1F3C221E9
:103FB800615CCB40C3605268C2F38132AA5C30BCFA
:103FC800B3FBF2F30361704753685268C3F383434A
:103FD8000D2B02F4803214BF023306238AB1154C2C
:103FE800E56AE26A02F00F02511CEA030ED4154A90
:103FF800B2FBF1F203FB02F30360C6E7114B036067
:10400800C3E7114A02FB03F30360BEE7E26A0D4D02
:10401800C2F303120132B5FBF2F5E26AC2F30322DE
:10402800023202FB05F2B2FBF1F203FB02F303607A
:10403800ABE700BF0010024000127A0078000020B1
:1040480074000020001BB70000093D00044A5369B2
:1040580019B923EA0000506170471843506170474E
:1040680000100240044A936919B923EA00009061DC
:10407800704718439061704700100240044AD369A2
:1040880019B923EA0000D06170471843D06170471E
:1040980000100240014B1860704700BF40044242C4
:1040A8004309012B0BD0022B094B00F01F000CBF5A
:1040B8001B6A5B6A23FA00F000F001007047044BAA
:1040C80000F01F001B6823FA00F000F001007047A1
:1040D80000100240037970B48279056803F18043C7
:1040E80003F58233EC431AB3184A4179166810294C
:1040F80006EA04061660566804EA060454601C685A
:1041080045EA04051D60006894686FEA000304EA44
:1041180003049460D46803EA0403D3600DD070BC30
:1041280001F1804303F582331A6810431860704721
:104138001A6814401C6070BC7047936870BC0343D5
:104148009360D3681843D060704700BF00040140F3
:10415800014B5861704700BF0004014029B9054A66
:10416800138823EA000010807047024B1A88104316
:104178001880704700280040024B9A8B188B42EA3F
:104188000040704700280040084AC0F30341938864
:1041980080B243F01003938011819081938823F0BB
:1041A80010031B041B0C9380704700BF00280040BD
:1041B800074A010C938880B243F01003938011845E
:1041C8009084938823F010031B041B0C9380704782
:1041D80000280040024A93889B06FCD5704700BF20
:1041E8000028004005490A468B8823F008031B0471
:1041F8001B0C8B8093881B07FCD570470028004058
:10420800024A938823EA0000908070470028004003
:10421800064B9A881B8892B2034005D01040C0B262
:10422800003018BF0120704718467047002800402A
:10423800FFF7E6BF08B50120FFF72CFFBDE80840EF
:104248000020FFF727BF00BF034A136803F03803B5
:1042580018431060704700BF00200240044B1A68E2
:1042680022F010021A601A6810431860704700BFE5
:1042780000200240014B1860704700BF003000402A
:10428800014B5860704700BF00300040014B9860F8
:10429800704700BF003000404AF6AA22014B1A605E
:1042A800704700BF003000404CF6CC42014B1A600A
:1042B800704700BF00300040014B1860704700BFD6
:1042C80020000E42034B5B68034214BF012000200C
:1042D800704700BF00700040024A136843EA80003C
:1042E80010607047007000404A880B8830B48C8892
:1042F8001343CA8823430C8913434A898D8923436E
:104308001343CC8902882B43234302F441521343BD
:104318000380838B0A8A23F400631B041B0C8383AA
:1043280030BC0282704700BF00230722038002824C
:1043380043808380C380038143818381C381704725
:10434800038829B923F040031B041B0C0380704722
:1043580043F040030380704781817047808970472C
:10436800838829B923F004031B041B0C838070473E
:1043780043F00403838070470389194214BF012066
:1043880000207047D0F8E83510B51B6904469847F7
:10439800032384F81231002010BD00BF042208B5A1
:1043A80090F81211D0F8E83580F8131180F812212E
:1043B800DB689847002008BD08B5D0F8E435DB690C
:1043C80003B19847002008BD08B5D0F8E4351B6A4A
:1043D8009847002008BD00BF08B5D0F8E4355B6AEF
:1043E8009847002008BD00BFD0F8E83510B55B69D4
:1043F80004469847012384F81531002010BD00BFFA
:1044080010B50446D0F8E8359B699847D4F8E435E8
:1044180020465B6800219847002084F8150110BDEC
:10442800002310B504461946402201F077FD80218B
:1044380020460023402201F071FD0122D4F8E8351E
:1044480084F81221A0785B689847002010BD00BF4F
:1044580010B582B06946044600F034FB9DF80010A0
:1044680001F01F03012B18D010D3022B07D001F045
:104478008001204601F0E4FD002002B010BD69462D
:10448800204600F0B3FA002002B010BD694620466D
:1044980000F03CF9002002B010BD6946204600F04B
:1044A80089FA002002B010BD70B5044649B990F8E9
:1044B8001131022B1AD094F81631012B0DD000209F
:1044C80070BDD0F8E4355B69002BF8D090F8122164
:1044D800032AF4D19847002070BD0023254922699A
:1044E80009680020516084F8163170BDD0F8382171
:1044F800D0F82451AA4216D9C378D0F82811012B34
:1045080008BF4919A2EB050208BFC0F82811C0F876
:10451800382192B200F0ACF8002320461A4619461A
:1045280001F046FDC7E7D0F83C31B3FBF5F605FBD3
:1045380016368EB99D420FD8D0F8402193420BD23F
:10454800324600F095F8C4F84061334632463146A9
:10455800204601F02DFDAEE7D4F8E435DB682BB139
:1045680094F81221032A01D120469847204600F0EA
:10457800AFF8A0E76C20002010B5044629B990F8E0
:104588001131032B0DD0002010BDD0F8E4359B6904
:10459800002BF8D090F81221032AF4D19847002074
:1045A80010BDD0F89033D0F87C23934213D9C0784B
:1045B800D4F880130128A3EB020304BF8918C4F8B8
:1045C80080139A4228BF1A46C4F8903392B2204604
:1045D80000F066F8D7E7D0F8E4351B6923B190F806
:1045E8001221032A00D19847204600F061F8CAE753
:1045F8002DE9F0410446164698460D46069F00F000
:1046080065FC20462946C4F8E485C4F8E875C4F872
:10461800EC6501F037FCD4F8E8351B68984720466C
:10462800BDE8F04100F088BC10B50446D0F8E43588
:104638001B689847D4F8E8359B689847002010BD58
:1046480008B5D0F8E4355B689847002008BD00BF7E
:1046580038B5134602250A46C0F83C31C0F838314F
:1046680080F81151002101F0C9FC002038BD00BFBD
:1046780008B513460A46002101F0C0FC002008BD19
:1046880038B5134603250A46C0F89433C0F890336A
:1046980080F81151002101F08BFC002038BD00BFCB
:1046A80008B513460A46002101F082FC002008BD27
:1046B8000023042210B50446194680F811211A4631
:1046C80001F09CFC204601F0BFF8002010BD00BF9F
:1046D8000023052210B50446194680F811211A4610
:1046E80001F066FC204601F0AFF8002010BD00BFC5
:1046F80010B50446802101F0A3FC2046002101F0FA
:104708009FFC2046BDE8104001F09EB870B54B787C
:1047180082B00D460446092B14D8DFE803F0374A67
:10472800135D136A051386194B88CA881E0A022E60
:10473800ADF8062000F01781032E00F0DB80012E73
:1047480000F093802046FFF7D3FF002002B070BD31
:104758008978944D01292970F4D890F81231022BE8
:1047680071D0032BEED1002900F00C8190F81011C4
:1047780001292DD0FFF764FF2978204684F810110D
:10478800FFF752FF2046FFF793FFDEE7012290F87C
:1047980012310321023B9342D4D8834BD0F818013D
:1047A8001A6000B11960204602227F49FFF750FFC6
:1047B800CBE790F81231023B012BC3D84B88012B71
:1047C800C3D10022D0F8E435C0F818219B68984777
:1047D8002046FFF76DFFB8E74B88012B60D1D0F872
:1047E800E425C0F81831936898472046FFF760FF22
:1047F800ABE78B88002BA5D1CB88002BA2D190F8F2
:104808001231032B9ED08D7805F07F0580F8145166
:10481800294601F04DFC2046FFF74AFF002D00F025
:10482800AD80022384F812318FE7CA88012A89D122
:1048380090F81231022B14D0032B83D100F5887124
:10484800FFF706FF81E70029C2D00121032380F882
:10485800101180F81231FFF7E7FE2046FFF728FF16
:1048680073E75249FFF7F4FE6FE7D0F8EC350DF126
:1048780006011B6880789847BDF80630002B3FF486
:1048880064AFEA88002A3FF460AF934228BF13461A
:1048980001461A462046ADF80630FFF7D9FE54E720
:1048A800022B7FF452AF8B8813F0FF0F7FF44DAFCC
:1048B8001B0A0269023B5268032B03D8DFE803F0A6
:1048C80016120E6D012363F306120121384B84F88A
:1048D800161120461A60FFF7EBFE36E7042363F350
:1048E8000612F2E7032363F30612EEE7022363F3EB
:1048F8000612EAE7DBB2052B3FF624AFDFE803F048
:104908002B231B130B03D0F8EC350DF106019B6923
:1049180080789847B0E7D0F8EC350DF106015B696F
:1049280080789847A8E7D0F8EC350DF106011B69A7
:1049380080789847A0E7D0F8EC350DF10601DB68E0
:104948008078984798E7D0F8EC350DF106019B6818
:104958008078984790E7D0F8EC350DF106015B6850
:104968008078984788E7D0F8E4350DF106019B6A0E
:10497800807898474670C4F8F0057DE7012384F8ED
:104988001231E2E6022380F8101180F81231FFF7A5
:1049980057FE2046FFF78CFED7E6052363F3061281
:1049A80093E700BF04140020F8130020FC13002034
:1049B8006C20002038B590F81231032B0CD10B79FC
:1049C8000D46012B08D8D0F8E43504469B68984773
:1049D800EB882BB1002038BDFFF78AFE002038BDD8
:1049E8002046FFF765FE002038BD00BF38B50B78BC
:1049F800054603F06003202B05D1D0F8E4359B6809
:104A08009847002038BD4B788A88012B0C46D1B2D4
:104A180027D00ED3032BF4D190F81231022B24D0D7
:104A2800032B3AD1638873BB4A062CD001F008FBEC
:104A380029E090F81231022B17D0032B2DD1130641
:104A48002FD401EB810100EBC10393F8763393B3C4
:104A580001221B4B1A60284602221949FFF7F8FD6C
:104A6800CFE790F81231022B04D14A06C9D001F0E1
:104A7800E7FAC6E7032B10D16388002BC1D14B0698
:104A880007D001F0F9FAD5F8E43521469B682846A5
:104A980098472846FFF70CFEB3E72846FFF728FE9D
:104AA800AFE701F07F0101EB810100EBC10393F84F
:104AB8001E31002BCCD10022014B1A60CBE700BF7E
:104AC80000140020012290F8CC3510B40B7090F837
:104AD800CD354B7090F8CF4590F8CE3503EB0423D5
:104AE8004B8090F8D14590F8D03503EB04238B80A8
:104AF80090F8D34590F8D23503EB04239BB2CB80D2
:104B080010BCC0F8403180F81121704710B5044638
:104B1800802101F095FA2046002101F091FA204603
:104B2800BDE8104000F090BE08B3037830B4FBB184
:104B38000446002314F8015F0133DBB2002DF9D1DC
:104B48005B000233DCB2032513800C704D700478CF
:104B58005CB1022300255A1CD2B2CC548D5410F8F3
:104B6800014F0233DBB2002CF5D130BC70477047DF
:104B780002242346E7E700BF10B5074C2068FF284A
:104B880007D0064A064B12689B6806499847FF23D8
:104B98002360002010BD00BFE40000201C1400208A
:104BA8002C010020F4200020432301480B8070478B
:104BB800E800002038B5044602234022812101F094
:104BC800ADF9204602234022012101F0A7F9204631
:104BD80003230822822101F0A1F900250221074BB5
:104BE800074A19715D711368984720464023054AA2
:104BF800012101F0DDF9284638BD00BF4001002041
:104C08002C010020B420002038B50446094D01EBE2
:104C18008101094B00EBC101B1F88C1328461B69CF
:104C280098472A4620464023012101F0C1F9002077
:104C380038BD00BFB42000202C01002010B5044668
:104C4800812101F09BF92046012101F097F9822189
:104C5800204601F093F9024B5B689847002010BD8D
:104C68002C01002070B50B780D4613F06004064641
:104C780012D0202C0AD1CC88497814BB1F4B084687
:104C88009B68224621469847204670BD30462946F3
:104C9800FFF73CFF022070BD4B780A2B0BD00B2B83
:104CA80003D0062BF2D0204670BD8B7813BB144A74
:104CB8001846136070BD01221149FFF7C9FC204650
:104CC80070BD1B060CD50D4B22469B6808460D4946
:104CD8009847EA8830460B49FFF7BAFC002070BDB8
:104CE800094D0A4B2960224606491C60FFF7C8FC9B
:104CF800002070BDFFF70AFF204670BD2C01002080
:104D080020140020F4200020E40000201C140020BF
:104D1800214AF8B51368012B03D0591C11600020F3
:104D2800F8BD00231D4C13602278002AF7D11C4DD2
:104D38001C4B29681B68B1F5805F24D0994227D0A5
:104D4800194A8EB2324410D9184EC1F580533360D7
:104D5800402B0ED9403B0127336040234031296066
:104D68002770812101F04AF9D9E75B1A0F4E3360A9
:104D7800EEE7194429604FF000070CBF022101211A
:104D880037602170EDE72A6013B11146064AEDE756
:104D980000232370C3E700BF141400201814002058
:104DA800101400200C140020FC20002008140020FF
:104DB800F8B5194C2378012B03D0022B18D000200A
:104DC800F8BD164A1368CBB1154D402B014628682B
:104DD80017D9403B1360402300F140042C60114C6C
:104DE80082B222440846812101F008F90020F8BD6A
:104DF800002381211A4601F001F9002323700020C5
:104E0800F8BD4FF00007176008BF022203EB000649
:104E18002E6008BF2270E2E7181400200814002052
:104E280010140020FC20002000207047002070474C
:104E380059B138B54518013D441E14F8010F01F069
:104E4800CBFDAC42F9D1002038BD0020704700BF2F
:104E58000F4B1B680B44B3F5805F16D270B40D4E30
:104E6800336871B101440C4D013901385A1C10F8EE
:104E7800014FB2F5805FEC54B4BF1346002388425B
:104E8800F4D13360002070BC70470220704700BF27
:104E9800081400200C140020FC200020002070477B
:104EA80000B5064A83B00092054B064A0121064820
:104EB800FFF79EFB002003B05DF804FB740100209F
:104EC800B800002058010020FC300020042330B531
:104ED8004FF400720324174D83B00DEB03012846ED
:104EE800ADF804208DF807308DF80640FEF7E2FE95
:104EF8004FF48062482301A92846ADF804208DF8B4
:104F080007308DF80640FEF7D5FE4FF4C052102347
:104F180001A92846ADF804208DF807308DF8064021
:104F2800FEF7C8FE01214FF48050FFF78FF803B059
:104F380030BD00BF0008014000B54FF4C06083B029
:104F4800FEF782FE40F243110322012301A8ADF8C7
:104F580004108DF806208DF80730FEF77FFE03B0A9
:104F68005DF804FB0023C0EB0010064AC000A2FB5A
:104F78000012801A02EB5002920801339A42FCD2C6
:104F8800704700BF2549922400230749074A01FBBF
:104F980000F0A2FB0012801A02EB500292080133C3
:104FA8009A42FCD2704700BFC0D401002549922420
:104FB800122301480B807047400100200423014858
:104FC8000B8070475401002010B5044C0A46044871
:104FD8002146FFF7A9FD204610BD00BFF03600208E
:104FE80020D100080A4608B5054920B10548FFF751
:104FF8009BFD034808BD0448FFF796FD004808BD1F
:10500800F036002058D1000834D100080A4608B507
:10501800054920B10548FFF787FD034808BD044846
:10502800FFF782FD004808BDF03600208CD100084B
:105038007CD1000810B5044C0A4604482146FFF705
:1050480073FD204610BD00BFF036002004D10008D3
:1050580010B5044C0A4604482146FFF765FD204672
:1050680010BD00BFF036002010D10008704700BF07
:10507800704700BF704700BF704700BF704700BF50
:10508800704700BF704700BF30B50023054683B0A6
:1050980003200193FFF766FF2B68134C1A690192EE
:1050A80007E00320FFF75EFF2B68013C1A690192B5
:1050B80016D0019A002AF4DA01990B4A41F001014D
:1050C8000191019919611969019103E01969013A7E
:1050D800019102D00199C907F8D40320FFF742FFD4
:1050E800002003B030BD00BF400D030030B4C478C9
:1050F8006CB900EB8200DA1C9210D0F8D05006D0C0
:10510800234651F8040B01339A422860F9D130BC88
:10511800002070470332921070B4D0F8D0600BD0E2
:105128000C460023356801339A4244F8045BF9D1F0
:1051380070BC01EB82007047084670BC704700BF26
:105148000122402391422DE9F0414280838057D0CB
:10515800002945D14FF4A06340F20C64374AC1726C
:10516800C380114606230C260480354FDFF8E08003
:10517800DFF8E0E0334CC0E9032400F1140202EB4D
:10518800830C00F1500401F5106342F8043F03F565
:105198000075624544F8045F03F12003F5D1C0F8B7
:1051A80014E0C0F8CC80B6B1B60000F18C039C19AD
:1051B80001F5A06243F8042F9C4202F12002F9D1C4
:1051C80000F1CC0301F58052991943F8042F994254
:1051D80002F58052F9D1C0F80C710020BDE8F081C9
:1051E80000224FF400614378C0E903210678E3B157
:1051F80011464FF460674FF488684FF4806EBCE73F
:105208004FF4A07402234FF481654FF0A042C1729D
:10521800C480037205801146042308260A4FDFF86C
:105228003880DFF838E0094CA5E719464FF4606785
:105238004FF488684FF4806EB1E700BF0000044067
:10524800000E044000080440000E00500008005002
:10525800400404400004044040040050000400508E
:1052680038B5037A0446012B50F80C2F19D10025C4
:10527800936B617A65F3104309B143F48013936328
:10528800D3686FF386136FF396536FF351436FF33D
:10529800D343D360FFF7F8FEE378012B20D000203A
:1052A80038BDD36843F04003D360FFF7EDFE637A5F
:1052B800E268002B0CBF4FF450234FF4E81314207E
:1052C8009363FFF761FEE378012BE8D1E3680522D9
:1052D8009D68002062F3440545F020059D6038BDB7
:1052E8000522E36862F3440545F020059D60EEE77A
:1052F800C2680020936843F001039360704700BFC1
:10530800C2680020936823F001039360704700BFD0
:10531800002300B583B00193019A0E4B42F020029E
:105328000192019A61F38A120192019AC1680A6195
:105338000A69019203E00A69013B019202D0019ACD
:105348009206F8D40320FFF70DFE002003B05DF8A5
:1053580004FB00BF400D0300002300B583B0019398
:10536800019A0C4B42F010020192019AC1680A613D
:105378000A69019203E00A69013B019202D0019A8D
:10538800D206F8D40320FFF7EDFD002003B05DF846
:1053980004FB00BF400D0300C26808B5D3680129AB
:1053A8006FF35D736FF39E7308D009B943F08043C0
:1053B800D3603220FFF7E8FD002008BD43F000531A
:1053C800F6E700BFC3685869C04300F001007047A2
:1053D800C36858699B691840704700BF30B4002300
:1053E8006FF080414FF0FF35C2680C4C93615161FA
:1053F800556051619461C0789169984208BF102343
:1054080030BC43F0804343F4701343F4605343F0DB
:105418000C030B4300209361704700BF0008008015
:105428000021F8B5D0F80C310269196013680446F8
:1054380061F3CC231360C37A012B12D18025116844
:10544800C36841F0030111602A482B4A5D629862E3
:10545800C3F80421294AC3F808214FF4A072C3F8FD
:105468000C2110212046FFF753FF2046FFF774FF59
:1054780000214FF0FF33266931617161B361F16139
:10548800657845B34FF0FF0C04F1140202EB850771
:1054980052F8043F18680028ACBF00204FF0904035
:1054A800974218601961C3F808C0F1D100224FF083
:1054B800FF0C174604F1500151F8043F01321868F7
:1054C8000028ACBF00204FF09040AA4218601F612E
:1054D800C3F808C0F0D33369204643F480733361BE
:1054E800E378012B04BF064B3363FFF777FF0020F7
:1054F800F8BD00BF80002000A0008000200120002F
:10550800030181000369034A9B68C3F34103D05C2C
:10551800704700BF9CD10008026910B49368816984
:10552800C3F34103022B14BF00240323086814BFEC
:1055380064F30A0063F30A0008605368002043F428
:105548008073536010BC70470123002270B40C783C
:105558004D78A340012D00EB84040CBFA469646D51
:105568009BB20CBF63F30F0263F31F4223681D0451
:105578000DD48E68CD7866F30A03C98865F3934322
:1055880061F3995343F0805343F400432360036964
:1055980070BCD96900200A43DA61704730B400242E
:1055A80001234D780A782146012D03FA02F300EB16
:1055B80082020CBF9569556D6FF3CF3402699BB2B7
:1055C8002C600CBF63F30F0163F31F41D369002004
:1055D80030BC23EA0103D361704700BF2DE9F043D3
:1055E80091F801E00A78BEF1010F4B69CE782CD012
:1055F80000EB8202576DD1F808C03C68CCF3120268
:105608003D69E3B16344013BB3FBFCF3C3F3090316
:1056180002FB03F263F3DC45C2F312024A6162F350
:1056280012053D61C378012B04BF0B697B61012E14
:1056380033D044F004443C600020BDE8F0830123EB
:1056480062F3120563F3DC45EBE700EB8208D8F858
:1056580018C0DCF80040DCF810501BB3D1F80890F3
:1056680063F3120509EB0307013FB7FBF9F7012EB6
:1056780067F3DC4541D0CCF81050C378012B4ED0ED
:1056880003690EFA02F2596B0A435A6344F0044460
:10569800CCF800400020BDE8F0834B7953B344F0C8
:1056A8000054C6E763F312056EF3DC45CCF81050DE
:1056B800C278012A2DD0012EE8D100698068C00582
:1056C80054BF44F0005444F0805444F00444CCF8EF
:1056D8000040002AB0D198B203308010D8F8D040EA
:1056E800AAD01346CA6852F8041B013398422160B5
:1056F800F9D1A1E744F080549BE766F35E75CCF8D6
:105708001050C278012AD8D10A69CCF81420012295
:10571800D3E70A69012ECCF81420B7D1F7E70B6953
:10572800CCF81430B2E700BFF0B44B784D69012BC8
:105738001BD00B788E6800EB83035C6D06F07F0747
:105748002268236967F3060343F400235DB92361E4
:10575800C37842F00442012B04BF0B6963612260E5
:105768000020F0BC70474E61F1E784692268236924
:10577800BDB965F3060343F400232361C378012B05
:1057880016D042F004422260002BE9D14B69002B6D
:10579800E6D0012302690878516B83400B435363B9
:1057A800DEE78E68AE42E4D24E6166F30603E2E7B6
:1057B8000B78096900EB8300836942F00442596160
:1057C80000202260F0BC70474A780B78012A00EB71
:1057D800830006D0426D136843F400131360002061
:1057E800704782691368002BF6DA43F0804343F46C
:1057F80000131360002070474A780B78012A00EBE9
:1058080083000CBF8069406DCA780368023A6FF361
:105818005553012A98BF43F0805303600020704716
:1058280003699869DB691840000C704700EB810137
:1058380003694A6D90685B69184070470369986905
:10584800DB69184080B27047064A436D1A61C27816
:10585800012A06D14FF0802200F2CC505861196815
:105868001A60704718000860837A5BB103699B6807
:10587800DB0707D5D0F80C2113686FF341036FF3EA
:1058880000031360704700BF2DE9F04F89B004464C
:10589800FFF798FD18B9002009B0BDE8F08F204641
:1058A800FFF796FD06460028F5D0C0F3074313F02E
:1058B8000800009340F0CF81009B5D0700F16A81EA
:1058C800F5B2A90702D50222E3685A61C6F3076355
:1058D8001A06DFB200F14F82C6F30726330700F13C
:1058E8000881290708D59A4B20461B68DB6898472A
:1058F80008220120E3685A61EA0600F1D180F30624
:1059080000F19680B10636D4009BDA0609D5904B93
:1059180020461B68DB6998474FF480120120E36832
:105928005A61009B9B0609D5894B20461B681B6A58
:1059380098474FF400120120E3685A617E0609D5A2
:10594800834B20461B685B6A98474FF080420120D2
:10595800E3685A6169079FD5E3685D686A0705D5FA
:105968007B4B20461B689B6A9847E36801205D6073
:1059780009B0BDE8F08F2046FFF7CEFD03A8FEF77B
:10598800F9FAE3682046DE68DDF810806FF38D26AB
:10599800DE60FFF7B7FD032800F0E4810122402113
:1059A8006C4BA2706C4A43449342A18040F24782F8
:1059B800A8F57403694AA3F51053934240F2438251
:1059C800674B684A4344934240F24182A8F18C7382
:1059D800654AA3F54343934240F23D82634B644AD0
:1059E8004344934240F23B82624B634A43449342AE
:1059F80040F23982A8F1B773604AA3F5585393422D
:105A080040F235825E4B5F4A4344934240F2338210
:105A18005D4B5E4A4344934294BF0623052363F3D8
:105A28008D264FF40052E3680120DE605A616BE76F
:105A3800226900215368204623F001035360FFF7D1
:105A480067FC627882B1FF21A44604F1140303EBDA
:105A5800820E04F1500253F8044F52F8040F9E4589
:105A6800A1608160F7D164464FF001110B224FF01D
:105A7800FF3023699861D9615A611A611A68204612
:105A88006FF30A121A60FFF7DFFE4FF48051304BB4
:105A9800E2681B6851611B6920469847012031E77D
:105AA800E3689A6922F010029A61D3F82080C8F35B
:105AB8004342022A08F00F0900F01D81062A12D17C
:105AC80009EB8909082204EBC90904F2CC512046E4
